:100000000C9482010C94AA010C94AA010C94AA01EC
:100010000C94AA010C94AA010C94AA010C94AA01B4
:100020000C94AA010C94AA010C94660A0C94180969
:100030000C94AA010C94AA010C94AA010C94AA0194
:100040000C94AA010C94AA010C94AA010C94AA0184
:100050000C94AA010C94AA010C94AA010C94A50278
:100060000C94AA010C94AA010C94AA010C94AA0164
:100070000C94AA010C94AA010C94AA010C94AA0154
:100080000C94080C0C94AA010C94AA010C94AA01DB
:100090000C94AA010C94AA010C94AA010C94AA0134
:1000A0000C94AA010C94AA010C94AA01DF03E203A8
:1000B000D503D903030403040304E603EA03EE03B0
:1000C000F403F8030304FE03070605040100080A0D
:1000D0000B0C0D090000000200080E0000030401D3
:1000E000000B000000000000000000000000000005
:1000F0000000040802011040804010204080408031
:1001000008020401804020100201108010204040AD
:1001100004040404040304050202020204030202AC
:100120000202060606060606040402020204000095
:1001300000002300260029002C002F0000000000F2
:10014000250028002B002E003100000000002400B4
:1001500027002A002D003000080B000202020100D7
:10016000090400000102020000052400100105241A
:10017000010101042402060524060001070581038C
:1001800010004009040100020A00000007050202F5
:100190004000000705830240000000C18081C112B9
:1001A00001000202000040412336800001010200EC
:1001B00001120100020000004041233680000101CD
:1001C0000200011803410072006400750069006EAE
:1001D000006F0020004C004C0043002203410072DD
:1001E000006400750069006E006F0020004C00651F
:1001F000006F006E006100720064006F000403096C
:100200000400000000000000002A2B28000000006D
:1002100000000000000000000000000000000000DE
:10022000002C9EB4A0A1A2A434A6A7A5AE362D375B
:1002300038271E1F20212223242526B333B62EB7AC
:10024000B89F8485868788898A8B8C8D8E8F9091C4
:1002500092939495969798999A9B9C9D2F3130A351
:10026000AD350405060708090A0B0C0D0E0F101119
:1002700012131415161718191A1B1C1DAFB1B0B59F
:10028000000904020001030000000921010100012E
:100290002265000705840340000105010902A10150
:1002A0000901A1008501050919012903150025018E
:1002B00095037501810295017505810305010930DA
:1002C000093109381581257F750895038106C0C05D
:1002D00005010906A1018502050719E029E71500B6
:1002E0002501750195088102950175088103950620
:1002F0007508150025650507190029658100C000EE
:10030000D006FB0B11241FBECFEFDAE0DEBFCDBF5E
:1003100011E0A0E0B1E0E6E4FCE102C005900D923E
:10032000A839B107D9F722E0A8E9B1E001C01D92D0
:10033000AE3EB207E1F713E0C4E0D3E004C0229779
:10034000FE010E94FB0DC030D107C9F70E947F0556
:100350000C94A10D0C94000060E875E284EB91E030
:100360000E94CF0662E08AE00E94040461E089E016
:100370000E94040480E00E949A030C9490050F935D
:100380001F93CF93DF938AE00E9473049093A5019B
:100390008093A401019709F0B6C080915801909113
:1003A0005901892B09F0AFC00E94EF020091A6010C
:1003B0001091A7012091A8013091A901601B710B38
:1003C000820B930B00915A0110915B0120915C010B
:1003D00030915D01061717072807390708F093C009
:1003E0000E94EF026093A6017093A7018093A80179
:1003F0009093A90169E671E084EB91E00E94F50415
:1004000061E089E00E943D0425E030E040E050E0FA
:1004100061E070E080E090E00E94BC05FB01EE0F1F
:10042000FF1FEE0FFF1FE85EFE4F80819181A281CA
:10043000B3818093980190939901A0939A01B0930E
:100440009B010397A105B10509F06DC024E030E0E0
:1004500040E050E060E070E0CB010E94BC05FB0191
:10046000EE0FFF1FEE0FFF1FEC5FFE4F80819181AB
:10047000A281B38180939C0190939D01A0939E01E2
:10048000B0939F0129E030E040E050E060E070E090
:10049000CB010E94BC056093A0017093A1018093E1
:1004A000A2019093A30169E671E084EB91E00E94C0
:1004B000F504C8E9D1E08E0149915991699179918A
:1004C0002AE030E084EB91E00E946D05D801ED91C7
:1004D000FC91EE0FFF1FEE0FFF1FE05DFE4F40810E
:1004E00051816281738128E130E08AEA91E00E94C3
:1004F000E70664EF71E080E090E00E941E03B1E047
:10050000C43ADB07C1F68091A4019091A5019093B4
:1005100059018093580160E089E0DF91CF911F91EC
:100520000F910C943D0429E030E040E050E060E0A1
:1005300070E0CB010E94BC0560939C0170939D010B
:1005400080939E0190939F019DCF1F920F920FB6B3
:100550000F9211242F933F938F939F93AF93BF9349
:100560008091AC019091AD01A091AE01B091AF012D
:100570003091AB0123E0230F2D3720F40196A11D0C
:10058000B11D05C026E8230F0296A11DB11D2093C1
:10059000AB018093AC019093AD01A093AE01B093F9
:1005A000AF018091B0019091B101A091B201B091E1
:1005B000B3010196A11DB11D8093B0019093B101CB
:1005C000A093B201B093B301BF91AF919F918F916E
:1005D0003F912F910F900FBE0F901F9018952FB73E
:1005E000F8946091AC017091AD018091AE01909151
:1005F000AF012FBF08953FB7F8948091B00190915B
:10060000B101A091B201B091B30126B5A89B05C07C
:100610002F3F19F00196A11DB11D3FBF6627782F0E
:10062000892F9A2F620F711D811D911D42E0660F67
:10063000771F881F991F4A95D1F70895CF92DF92AF
:10064000EF92FF92CF93DF936B017C010E94FB023C
:10065000EB01C114D104E104F10479F00E94FB0222
:100660006C1B7D0B683E7340A0F381E0C81AD10873
:10067000E108F108C851DC4FECCFDF91CF91FF903A
:10068000EF90DF90CF900895789484B5826084BD18
:1006900084B5816084BD85B5826085BD85B5816086
:1006A00085BDEEE6F0E0808181608083E1E8F0E0E6
:1006B0001082808182608083808181608083E0E815
:1006C000F0E0808181608083E1E9F0E080818260F8
:1006D0008083808181608083E0E9F0E080818160B7
:1006E0008083E1ECF0E0808184608083808182609F
:1006F0008083808181608083E3ECF0E08081816091
:100700008083E0ECF0E0808182608083E2ECF0E0C6
:10071000808181608083EAE7F0E08081846080836B
:100720008081826080838081816080838081806815
:1007300080830895823108F08251E82FF0E0E85379
:10074000FF4FE49180917B00E3FB222720F930E00A
:1007500095E0220F331F9A95E1F78F7D822B8093CE
:100760007B00E77080915E0120E4829FC00111242C
:10077000E82BE0937C0080917A00806480937A007B
:1007800080917A0086FDFCCF8091780020917900DD
:1007900090E0922B089590E0FC013197EE30F10546
:1007A00090F5EA5AFF4F0C94F90D809180008F77F5
:1007B00003C0809180008F7D80938000089584B570
:1007C0008F7702C084B58F7D84BD0895809190009D
:1007D0008F7707C0809190008F7D03C0809190003B
:1007E000877F8093900008958091C0008F7703C029
:1007F0008091C0008F7D8093C00008958091C200D9
:10080000877F8093C2000895CF93DF9390E0FC012F
:10081000EE50FF4F2491FC01E05FFE4F849188234E
:1008200049F190E0880F991FFC01E65BFE4FA5910E
:10083000B491845C9E4FFC01C591D4919FB7611126
:1008400008C0F8948C91209582238C938881822310
:100850000AC0623051F4F8948C91322F3095832382
:100860008C938881822B888304C0F8948C91822B8E
:100870008C939FBFDF91CF9108950F931F93CF93D8
:10088000DF931F92CDB7DEB7282F30E0F901EC528D
:10089000FF4F8491F901EE50FF4F1491F901E05F91
:1008A000FE4F04910023C9F0882321F069830E9440
:1008B000CB036981E02FF0E0EE0FFF1FE45CFE4FF9
:1008C000A591B4919FB7F8948C91611103C01095D4
:1008D000812301C0812B8C939FBF0F90DF91CF911B
:1008E0001F910F910895CF93DF93282F30E0F901E6
:1008F000EC52FF4F8491F901EE50FF4FD491F90172
:10090000E05FFE4FC491CC2391F081110E94CB0394
:10091000EC2FF0E0EE0FFF1FE25DFE4FA591B491CA
:100920002C912D2381E090E021F480E002C080E052
:1009300090E0DF91CF910895CF92DF92EF92FF92F6
:100940000F931F93CF93DF936C017A01EB01E60EB7
:10095000F71E00E010E0CE15DF0561F06991D601C9
:10096000ED91FC910190F081E02DC6010995080FF1
:10097000191FF1CFC801DF91CF911F910F91FF9007
:10098000EF90DF90CF9008956115710581F0DB0144
:100990000D900020E9F7AD0141505109461B570B5E
:1009A000DC01ED91FC910280F381E02D099480E05F
:1009B00090E00895DC01ED91FC910190F081E02D33
:1009C00009940F931F93CF93DF93EC016DE00E9486
:1009D000DA048C016AE0CE010E94DA04800F911FD4
:1009E000DF91CF911F910F9108950F931F93CF9394
:1009F000DF93EC010E94C4048C01CE010E94E1044B
:100A0000800F911FDF91CF911F910F9108958F92C9
:100A10009F92AF92BF92CF92DF92EF92FF920F938D
:100A20001F93CF93DF93CDB7DEB7A1970FB6F8949E
:100A3000DEBF0FBECDBF7C01C42EE52FCB01D22E71
:100A400019A221E02D1510F02AE0D22E8E010F5DA3
:100A50001F4F8D2C912CA12CB12C6C2D7E2FA5011C
:100A600094010E94B80D8C2DD29E80191124015042
:100A700011098A3014F4805D01C0895CF80180831B
:100A8000211531054105510521F0C22EE32FCA0180
:100A9000E4CFB801C7010E94C404A1960FB6F89430
:100AA000DEBF0FBECDBFDF91CF911F910F91FF90A1
:100AB000EF90DF90CF90BF90AF909F908F90089570
:100AC0002115310541F4DC01ED91FC910190F0819B
:100AD000E02D642F09940C9407050F931F93CF9377
:100AE000DF93EC010E9460058C01CE010E94E104BD
:100AF000800F911FDF91CF911F910F9108950E9458
:100B0000440386E092E00E94480A0E94AC01C0E0E3
:100B1000D0E00E94BF012097E1F30E940000F9CFCE
:100B2000009729F0BC0180E090E00C94980D0895A6
:100B3000CF93DF9300D000D0CDB7DEB79B01AC01DF
:100B4000611571058105910569F069833A834B83CD
:100B50005C830E94930D29813A814B815C810E94C4
:100B6000DA0D03C060E070E0CB010F900F900F90A2
:100B70000F90DF91CF910895CF92DF92EF92FF9285
:100B80006B017C01621773078407950764F4CA013F
:100B9000B9016C197D098E099F090E9498056C0D99
:100BA0007D1D8E1D9F1DFF90EF90DF90CF900895CB
:100BB000809102029091030220910402309105027B
:100BC000821B930B8F739927089520910202309115
:100BD000030280910402909105022817390749F019
:100BE000E0910402F0910502EE53FE4F808190E007
:100BF00008958FEF9FEF0895209102023091030234
:100C0000809104029091050228173907A9F0E0911C
:100C10000402F0910502EE53FE4F80812091040200
:100C2000309105022F5F3F4F2F733327309305021A
:100C30002093040290E008958FEF9FEF0895CF93E3
:100C4000DF93C0910202D09103022196CF73DD277A
:100C50008091040290910502C817D90799F082E0AB
:100C60000E94DA078F3F2FEF920761F0E0910202B6
:100C7000F0910302EE53FE4F8083D0930302C093A2
:100C80000202DFCFDF91CF91089583E00C943E0AFA
:100C90000F931F93CF93DF931F92CDB7DEB78C01D5
:100CA000698380916601882359F041E050E0BE01DC
:100CB0006F5F7F4F83E00E940B08181619063CF007
:100CC00081E090E0F8019383828380E090E00F90D0
:100CD000DF91CF911F910F910895FC0120812E5F2C
:100CE000208342E450E068E571E080E80C94A608B7
:100CF000FC0181819081913A59F4813209F04BC015
:100D000047E050E06FE571E080E00E94A60845C032
:100D1000913209F040C0803239F467E070E08FE52D
:100D200091E00E94EA0839C0823209F034C0828121
:100D30008093660180915F0190916001A0916101B3
:100D4000B0916201803B9440A105B10531F58091DD
:100D5000660180FD12C087E797E7909301088093B2
:100D600000082BE088E190E00FB6F894A8958093F6
:100D700060000FBE2093600010C088E10FB6F894A9
:100D800080936000109260000FBEA8951092010839
:100D90001092000802C080E0089581E0089508954F
:100DA0001092B7011092B60188EE93E0A0E0B0E097
:100DB0008093B8019093B901A093BA01B093BB019D
:100DC0008BE791E09093B5018093B40108954F9221
:100DD0005F926F927F928F929F92AF92BF92CF92CB
:100DE000DF92EF92FF920F931F93CF93DF93EC016B
:100DF0002A013B01890164E270E00E94C20C6AE6AC
:100E00007AE0CE010E94280D69E773E0CE010E94CE
:100E1000360D6CEB71E0CE010E94280D6CEB71E099
:100E2000CE010E94360D01501109C12CD12C760142
:100E3000C39404C0CC0CDD1CEE1CFF1C0A95D2F739
:100E4000812C912C54018394C114D104E104F10448
:100E500079F184E088169104A104B10419F408E73B
:100E600013E002C00CEB11E0D701C60184219521EB
:100E7000A621B721B801892B8A2B8B2B41F0CE01FB
:100E80000E94280DB801CE010E94360D07C0CE0188
:100E90000E94360DB801CE010E94280D8FEF881AEE
:100EA000980AA80AB80AF694E794D794C794CCCFC6
:100EB00060E070E0CE01DF91CF911F910F91FF9024
:100EC000EF90DF90CF90BF90AF909F908F907F90EA
:100ED0006F905F904F900C94360D615030F02091E0
:100EE000F100FC0120830196F8CF289884E68093D6
:100EF0000D0208952FB7FC012083F894677060936A
:100F0000E9000895CF93DF931F92CDB7DEB7682F26
:100F1000CE0101960E947A078091F20099819FBFCD
:100F20000F90DF91CF910895FF920F931F93CF936E
:100F3000DF9300D0CDB7DEB7F62E8A0190910C0278
:100F4000992311F057FF03C08FEF9FEF2BC0682F3D
:100F5000CE0101967A830E947A078091F20090E098
:100F6000A8017A81801791070CF4AC01EF2DF72FBF
:100F7000F40E84E6FE1639F0289880930D029091C5
:100F8000F1009193F7CF4115510521F08091F200C6
:100F9000882321F089818FBFCA0104C08BE680932A
:100FA000E800F8CF0F900F90DF91CF911F910F9134
:100FB000FF900895CF93DF931F92CDB7DEB741E046
:100FC00050E0BE016F5F7F4F0E949407019719F4B4
:100FD000898190E002C08FEF9FEF0F90DF91CF915A
:100FE0000895CF93DF931F92CDB7DEB7682FCE0160
:100FF00001960E947A079091E800892F807295FFF0
:1010000004C09091F20080E4891B99819FBF0F90EA
:10101000DF91CF9108954F925F926F927F928F925E
:101020009F92AF92BF92CF92DF92EF92FF920F9377
:101030001F93CF93DF931F92CDB7DEB7582E7B015E
:10104000A42E952E80910C02882369F0042F152F71
:101050008AEFB82E852D8072782E9AE3892E852D01
:101060008074682E11C08FEF9FEF53C0852D0E94B2
:10107000F107482E81110CC0BA94A9F361E070E029
:1010800080E090E00E941E030115110579F737C03A
:10109000282F30E0021713070CF4402EC42CD12C5B
:1010A0000C191D09652DCE0101960E947A07772043
:1010B00039F04A948FEF4816B1F01092F100F9CF51
:1010C000F701842D57FE07C0815058F094919093FA
:1010D000F1003196F9CF815020F091919093F10079
:1010E000FACFEC0CFD1C8091E80085FF0FC00115C4
:1010F000110511F461100AC089818FBFC5CF5D98B9
:1011000084E680930E028A2D992D03C08092E80018
:10111000F3CF0F90DF91CF911F910F91FF90EF9040
:10112000DF90CF90BF90AF909F908F907F906F9007
:101130005F904F9008951092E90010920B02109268
:101140000A0290930902809308020895CF93DF93D7
:10115000FB0120E030E0DEEF24173507A1F187FF27
:1011600002C0C49101C0C081A0910A02B0910B02DB
:101170006091080270910902A617B707B4F4909124
:10118000E8009570E1F39091E80092FD1EC0C093D5
:10119000F10060910A0270910B026F5F7F4F6F73D5
:1011A0007727672B11F4D093E80060910A027091C1
:1011B0000B026F5F7F4F70930B0260930A022F5FE9
:1011C0003F4F3196C9CFC90102C08FEF9FEFDF912A
:1011D000CF9108951F93CF93DF931F92CDB7DEB7C2
:1011E000162F2091E80022FFFCCF612F79830E9407
:1011F0006D078BEF8093E800812F7981972F0F90F7
:10120000DF91CF911F910895CF93DF931F92CDB7B8
:10121000DEB71982CE0101960E946D06CE010196BD
:101220000E94E30A898190E00F90DF91CF910895A9
:101230001F920F920FB60F921124EF92FF920F930D
:101240001F932F933F934F935F936F937F938F934E
:101250009F93AF93BF93EF93FF93CF93DF93CDB75C
:10126000DEB76297DEBFCDBF1092E9008091E80043
:1012700083FFE7C068E0CE010A960E946D0782EF07
:101280008093E8009A8597FF05C08091E80080FF71
:10129000FCCF03C08EEF8093E800892F807609F0A1
:1012A000B5C08B85811105C01092F1001092F1003C
:1012B000C1C0282F2D7F213009F4BCC0853049F4EE
:1012C0008091E80080FFFCCF8C8580688093E300EC
:1012D000B1C0863009F072C02D85E888F9882230C7
:1012E00071F580E090E02A8B0E949B080E9404091F
:1012F00099E08E010F5F1F4FF801392F11923A9537
:10130000E9F799832A892A8391E09E8390E8988758
:101310009AEF998720910A0230910B02275F3F4F85
:101320003C832B838D83C7010E949B0849E050E0DA
:10133000B80180E00E94A6080E9404097BC0C70192
:101340002A8B0E949B082A89223241F482E290E093
:101350000E94EE0A892B09F06DC070C0213069F43B
:1013600088899989089711F42093070280910702D0
:10137000882389F06FE971E016C0233009F05EC060
:101380008C85882359F0823061F0813009F056C095
:1013900063EC71E008C061EB71E005C06DEF71E0D6
:1013A00002C06BED71E06115710509F447C0FB01E6
:1013B000449150E080E80E94A6083CC0873009F4C0
:1013C0003DC0883021F481E08093F10033C0893042
:1013D00089F5937099F5EBE9F1E081E021E096E37E
:1013E0008093E9002093EB0034913093EC009093CC
:1013F000ED008F5F3196853099F78EE78093EA0094
:101400001092EA008C8580930C0214C08889998917
:101410000E949B088E85811105C0CE010A960E940C
:10142000780606C0823051F4CE010A960E94160B4F
:10143000882321F08EEF8093E80003C081E280933F
:10144000EB0062960FB6F894DEBF0FBECDBFDF9102
:10145000CF91FF91EF91BF91AF919F918F917F912C
:101460006F915F914F913F912F911F910F91FF903D
:10147000EF900F900FBE0F901F9018958093E9008A
:101480008091F200882319F08AE38093E8000895A0
:1014900010920C0281E08093D70080EA8093D800FC
:1014A00082E189BD09B400FEFDCF61E070E080E01B
:1014B00090E00E941E0380E98093D8008CE0809326
:1014C000E2001092E000559A209A08951F920F9220
:1014D0000FB60F9211242F933F934F935F936F9307
:1014E0007F938F939F93AF93BF93EF93FF938091DD
:1014F000E1001092E10083FF0FC01092E90091E03B
:101500009093EB001092EC0092E39093ED00109218
:101510000C0298E09093F00082FF26C083E00E94C6
:101520003E0A82E00E948207882321F084EB91E04A
:101530000E941F0680910E02882339F080910E02CE
:10154000815080930E02882369F080910D028823D8
:1015500059F080910D02815080930D02811104C0D9
:10156000289A02C05D9AF1CFFF91EF91BF91AF91A0
:101570009F918F917F916F915F914F913F912F91AB
:101580000F900FBE0F901F901895FF920F931F930F
:10159000CF93DF93EC01F62EE881F9810480F58189
:1015A000E02D09958C01E881F9810680F781E02D15
:1015B0006F2DCE010995C8019927DF91CF911F9119
:1015C0000F91FF900895FC0120812F5F208349E156
:1015D00050E061E872E080E80C94A60845E650E02F
:1015E0006AE972E080E80C94A608EF92FF920F93EC
:1015F0001F93CF93DF931F92CDB7DEB789838B0103
:101600007A0141E050E0BE016F5F7F4F84E00E94AD
:101610000B08A701B80184E40E940B080F90DF912A
:10162000CF911F910F91FF90EF900895FC01918150
:101630008081813A31F481E0913091F0933089F4E6
:1016400011C0813271F49B3021F482818093680152
:1016500005C09A3031F482818093670181E008955A
:10166000089580E0089548E050E082E00C94F50A87
:10167000CF93DF93DC01683818F0E8E7E60F25C068
:10168000E62FF0E067FF11C0E058F10981E090E03B
:1016900001C0880FEA95EAF714969C911497982B4D
:1016A00014969C931497E0E010C0EF5FFD4FE49117
:1016B000EE2309F440C0E7FF08C014968C911497FC
:1016C000826014968C931497EF7716968C911697E8
:1016D0008E1741F117968C9117978E1719F118965E
:1016E0008C9118978E17F1F019968C9119978E1787
:1016F000C9F01A968C911A978E17A1F01B968C91AF
:101700001B978E1779F080E090E0ED01C80FD91F8C
:101710002E81211102C0EE8305C00196863091050D
:10172000A1F709C0BD016C5F7F4FCD010E94330B53
:1017300081E090E008C081E090E013969C938E9346
:10174000129780E090E0DF91CF910895683818F00B
:10175000E8E7E60F25C0E62FF0E067FF12C0E0588B
:10176000F10921E030E001C0220FEA95EAF7209567
:10177000DC0114963C911497322314963C93E0E0DC
:101780000FC0EF5FFD4FE491EE2329F1E7FF08C0A2
:10179000DC0114962C9114972D7F14962C93EF77DF
:1017A00020E030E0EE2351F0DC01A20FB31F1696CB
:1017B0004C9116974E1302C016961C922F5F3F4F06
:1017C0002630310579F7BC016C5F7F4F0E94330BE7
:1017D00081E090E0089580E090E00895FC01168299
:1017E000178210861186128613861482BC016C5FE4
:1017F0007F4F0C94330B10921B0210921202109226
:1018000011028DE891E09093100280930F020895E9
:101810001F920F920FB60F9211242F933F934F9365
:101820005F936F937F938F939F93AF93BF93EF9348
:10183000FF9380911D020E94730420912102309138
:1018400022022F5F3F4F309322022093210290917A
:101850002002953618F096E090931C0290911C029D
:101860009430C9F128F4923069F09330D1F05EC021
:10187000953009F451C0963009F058C091E090932A
:10188000ED0251C0811152C02091210230912202FB
:101890002436310508F442C01092ED021092200265
:1018A0001CC0813009F042C0E091200291E09E0FFF
:1018B00090932002F0E02091210230912202EE0F5D
:1018C000FF1FE45EFD4F30872783109222021092A3
:1018D000210294E029C0811117C0E091200291E01B
:1018E0009E0F90932002F0E020912102309122027D
:1018F000EE0FFF1FE45EFD4F308727831092220218
:101900001092210293E010C0209121023091220216
:101910002536310558F007C0811108C01092220207
:101920001092210203C095E090931C0290911F0237
:101930009923B9F081110AC080911E02882321F0F9
:1019400080911E0261E009C02D9A0BC080911E0299
:10195000882331F080911E0260E00E943D0401C0A6
:101960002D98FF91EF91BF91AF919F918F917F91B2
:101970006F915F914F913F912F910F900FBE0F90FC
:101980001F901895CF93DF93EB011092710061E0E7
:1019900085E00E94040460E085E00E943D049E0111
:1019A000442737FD4095542F60E47FE180E090E0CC
:1019B0000E94DA0D82E08093900081E18093910093
:1019C0003093970020939600C90163E070E00E9475
:1019D000A40D7093990060939800DF91CF910895C2
:1019E0008F929F92AF92BF92CF92DF92EF92FF922F
:1019F0006A017B01453051056105710500F10E94C6
:101A0000FB024B015C0184E0C81AD108E108F1082F
:101A1000C80CD91CEA1CFB1CC814D904EA04FB043A
:101A200038F40E94FB0286169706A806B906C8F38A
:101A30000E94FB026C157D058E059F05C8F3FF9083
:101A4000EF90DF90CF90BF90AF909F908F900895D0
:101A5000209190002068209390006115710529F075
:101A6000AB0160E070E00C94F00C089520919000C0
:101A70002F77209390006115710529F0AB0160E08C
:101A800070E00C94F00C08958F929F92AF92BF92E9
:101A9000CF92DF92EF92FF92CF93DF93EC016881B8
:101AA00079818A819B81611571058105910521F4F8
:101AB00064E279ED8BE597E02DE133EF41E050E012
:101AC0000E94DA0D49015A019B01AC01A7EAB1E479
:101AD0000E94FF0D6B017C01ACEEB4EFA5019401F7
:101AE0000E940D0EC60ED71EE81EF91EF7FE06C098
:101AF00081E0C81AD108E10880E8F80AC882D982D2
:101B0000EA82FB82C701B6019F77DF91CF91FF90F8
:101B1000EF90DF90CF90BF90AF909F908F900895FF
:101B20000E94440D089580E091E00E94440D0895C4
:101B3000609300017093010180930201909303016F
:101B40000895F8940C94210EAA1BBB1B51E107C009
:101B5000AA1FBB1FA617B70710F0A61BB70B881F3D
:101B6000991F5A95A9F780959095BC01CD010895CC
:101B7000A1E21A2EAA1BBB1BFD010DC0AA1FBB1F91
:101B8000EE1FFF1FA217B307E407F50720F0A21B03
:101B9000B30BE40BF50B661F771F881F991F1A9470
:101BA00069F760957095809590959B01AC01BD019A
:101BB000CF010895052E97FB1EF400940E94F10DAD
:101BC00057FD07D00E94B80D07FC03D04EF40C94CB
:101BD000F10D50954095309521953F4F4F4F5F4FF8
:101BE000089590958095709561957F4F8F4F9F4F89
:101BF0000895EE0FFF1F0590F491E02D09940E94C7
:101C0000120EA59F900DB49F900DA49F800D911D65
:101C100011240895B7FF0C94FF0D0E94FF0D821B45
:101C2000930B0895A29FB001B39FC001A39F700DB5
:101C3000811D1124911DB29F700D811D1124911DD4
:061C40000895F894FFCFA7
:101C4600010000000500000006000000070000007B
:101C5600080000000900000000000000010000006C
:101C6600020000000300000005000000060000005E
:101C7600000CC000010CC000020CC000030CC00028
:101C8600040CC000050CC000060CC000070CC00008
:101C9600080CC000090CC0000100C80000000100CB
:101CA600E100000000000001012D2D2D2D2D2D2D10
:101CB6002D2D2D2D2D2D000000000048069C04D84A
:101CC60005FC05E50545061F0600000000C50A9C43
:081CD60004380BA60BEE0B0015
:00000001FF
