:100000000C947C010C94A4010C94A4010C94A40104
:100010000C94A4010C94A4010C94A4010C94A401CC
:100020000C94A4010C94A4010C941B0A0C94CD080C
:100030000C94A4010C94A4010C94A4010C94A401AC
:100040000C94A4010C94A4010C94A4010C94A4019C
:100050000C94A4010C94A4010C94A4010C944B03E3
:100060000C94A4010C94A4010C94A4010C94A4017C
:100070000C94A4010C94A4010C94A4010C94A4016C
:100080000C94BD0B0C94A4010C94A4010C94A40139
:100090000C94A4010C94A4010C94A4010C94A4014C
:1000A0000C94A4010C94A4010C94A40154045704CE
:1000B0004A044E047804780478045B045F04630403
:1000C00069046D04780473040000000200080E0047
:1000D00000030401000B000000000000000000000D
:1000E00000000000000004080201104080401020C1
:1000F00040804080080204018040201002011080EE
:100100001020404004040404040304050202020217
:1001100004030202020206060606060604040202A0
:100120000204000000002300260029002C002F00FC
:1001300000000000250028002B002E0031000000E8
:100140000000240027002A002D003000080B0002C8
:10015000020201000904000001020200000524005F
:1001600010010524010101042402060524060001F2
:100170000705810310004009040100020A00000085
:10018000070502024000000705830240000000C18D
:100190008081C1120100020200004041233680002C
:1001A000010102000112010002000000404123365B
:1001B0008000010102000118034100720064007513
:1001C0000069006E006F0020004C004C00430022CC
:1001D00003410072006400750069006E006F00202A
:1001E000004C0065006F006E006100720064006FDB
:1001F000000403090400000000000000002A2B286E
:1002000000000000000000000000000000000000EE
:1002100000000000002C9EB4A0A1A2A434A6A7A5B3
:10022000AE362D3738271E1F20212223242526B342
:1002300033B62EB7B89F8485868788898A8B8C8D44
:100240008E8F909192939495969798999A9B9C9D56
:100250002F3130A3AD350405060708090A0B0C0D34
:100260000E0F101112131415161718191A1B1C1D36
:10027000AFB1B0B50009040200010300000009217C
:10028000010100012265000705840340000105010A
:100290000902A1010901A10085010509190129032C
:1002A00015002501950375018102950175058103EE
:1002B00005010930093109381581257F7508950335
:1002C0008106C0C005010906A1018502050719E0E4
:1002D00029E715002501750195088102950175082A
:1002E0008103950675081500256505071900296520
:1002F0008100C0008506B00B11241FBECFEFDAE0ED
:10030000DEBFCDBF11E0A0E0B1E0E2EBFAE102C058
:1003100005900D92A436B107D9F722E0A4E6B1E02A
:1003200001C01D92A03BB207E1F712E0C8EFD2E096
:1003300004C02297FE010E94530DC43FD107C9F7A4
:100340000E947C050C94F90C0C94000060E875E2A6
:1003500086E791E00E94840662E08AE00E947904C8
:1003600061E089E00C9479040F931F93CF93DF939E
:100370008AE00E94E804EC01909365018093640197
:1003800081309105B9F58091010190910201892B8D
:1003900089F50E94950300916601109167012091F3
:1003A000680130916901601B710B820B930B009106
:1003B00003011091040120910501309106010617F7
:1003C000170728073907B0F461E089E00E94B204FA
:1003D00080916A0190916B01019690936B018093DB
:1003E0006A0121E020930001069721F4D0936B016C
:1003F000C0936A018091640190916501909302011C
:100400008093010180916A0190916B010197D1F570
:10041000809100018130B1F561E171E086E791E002
:100420000E946A0528E130E041E05CE060EC70E0A9
:100430008CE691E00E949C0668EC70E080E090E021
:100440000E94C40328E130E041E05CE060EC70E031
:100450008CE691E00E949C0668EC70E080E090E001
:100460000E94C40328E130E045E05CE060EC70E00D
:100470008CE691E00E949C061092000160E089E009
:100480000E94B20480916A0190916B010297D1F5AC
:10049000809100018130B1F56AE171E086E791E079
:1004A0000E946A0528E130E041E05CE060EC70E029
:1004B0008CE691E00E949C0668EC70E080E090E0A1
:1004C0000E94C40328E130E044E05CE060EC70E0AE
:1004D0008CE691E00E949C0668EC70E080E090E081
:1004E0000E94C40328E130E041E05CE060EC70E091
:1004F0008CE691E00E949C061092000160E089E089
:100500000E94B20480916A0190916B010397D1F52A
:10051000809100018130B1F563E271E086E791E0FE
:100520000E946A0528E130E041E05CE060EC70E0A8
:100530008CE691E00E949C0668EC70E080E090E020
:100540000E94C40328E130E047E05CE060EC70E02A
:100550008CE691E00E949C0668EC70E080E090E000
:100560000E94C40328E130E048E05CE060EC70E009
:100570008CE691E00E949C061092000160E089E008
:100580000E94B20480916A0190916B010497D1F5A9
:10059000809100018130B1F56AE271E086E791E077
:1005A0000E946A0528E130E042E05CE060EC70E027
:1005B0008CE691E00E949C0668EC70E080E090E0A0
:1005C0000E94C40328E130E042E05CE060EC70E0AF
:1005D0008CE691E00E949C0668EC70E080E090E080
:1005E0000E94C40328E130E047E05CE060EC70E08A
:1005F0008CE691E00E949C061092000160E089E088
:100600000E94B20480916A0190916B010597F1F507
:10061000809100018130D1F567E371E086E791E0D8
:100620000E946A0528E130E041E05CE060EC70E0A7
:100630008CE691E00E949C0668EC70E080E090E01F
:100640000E94C40328E130E047E05CE060EC70E029
:100650008CE691E00E949C0668EC70E080E090E0FF
:100660000E94C40328E130E041E05CE060EC70E00F
:100670008CE691E00E949C061092000160E089E007
:10068000DF91CF911F910F910C94B204DF91CF9124
:100690001F910F9108951F920F920FB60F92112480
:1006A0002F933F938F939F93AF93BF9380916E014E
:1006B00090916F01A0917001B091710130916D0125
:1006C00023E0230F2D3720F40196A11DB11D05C095
:1006D00026E8230F0296A11DB11D20936D01809382
:1006E0006E0190936F01A0937001B093710180919E
:1006F000720190917301A0917401B09175010196FE
:10070000A11DB11D8093720190937301A093740198
:10071000B0937501BF91AF919F918F913F912F91B0
:100720000F900FBE0F901F9018952FB7F8946091FF
:100730006E0170916F0180917001909171012FBFD6
:1007400008953FB7F8948091720190917301A09140
:100750007401B091750126B5A89B05C02F3F19F013
:100760000196A11DB11D3FBF6627782F892F9A2FB3
:10077000620F711D811D911D42E0660F771F881F5A
:10078000991F4A95D1F70895CF92DF92EF92FF9289
:10079000CF93DF936B017C010E94A103EB01C11495
:1007A000D104E104F10479F00E94A1036C1B7D0BDC
:1007B000683E7340A0F381E0C81AD108E108F1084F
:1007C000C851DC4FECCFDF91CF91FF90EF90DF90DD
:1007D000CF900895789484B5826084BD84B581609B
:1007E00084BD85B5826085BD85B5816085BDEEE639
:1007F000F0E0808181608083E1E8F0E01082808118
:1008000082608083808181608083E0E8F0E0808185
:1008100081608083E1E9F0E0808182608083808173
:1008200081608083E0E9F0E0808181608083E1EC99
:10083000F0E0808184608083808182608083808119
:1008400081608083E3ECF0E0808181608083E0EC74
:10085000F0E0808182608083E2ECF0E08081816062
:100860008083EAE7F0E08081846080838081826019
:100870008083808181608083808180688083089507
:1008800090E0FC013197EE30F10590F5EA5AFF4F08
:100890000C94510D809180008F7703C0809180006F
:1008A0008F7D80938000089584B58F7702C084B5D2
:1008B0008F7D84BD0895809190008F7707C08091CF
:1008C00090008F7D03C080919000877F809390007F
:1008D00008958091C0008F7703C08091C0008F7D04
:1008E0008093C00008958091C200877F8093C200EA
:1008F0000895CF93DF9390E0FC01EA51FF4F2491DC
:10090000FC01EC5FFE4F8491882349F190E0880F51
:10091000991FFC01E25CFE4FA591B491805D9E4F52
:10092000FC01C591D4919FB7611108C0F8948C91D6
:10093000209582238C93888182230AC0623051F4EF
:10094000F8948C91322F309583238C938881822B5D
:10095000888304C0F8948C91822B8C939FBFDF9185
:10096000CF9108950F931F93CF93DF931F92CDB72D
:10097000DEB7282F30E0F901E853FF4F8491F901E9
:10098000EA51FF4F1491F901EC5FFE4F04910023EF
:10099000C9F0882321F069830E9440046981E02F17
:1009A000F0E0EE0FFF1FE05DFE4FA591B4919FB701
:1009B000F8948C91611103C01095812301C0812BA3
:1009C0008C939FBF0F90DF91CF911F910F9108954E
:1009D000CF93DF93282F30E0F901E853FF4F849144
:1009E000F901EA51FF4FD491F901EC5FFE4FC49138
:1009F000CC2391F081110E944004EC2FF0E0EE0F27
:100A0000FF1FEE5DFE4FA591B4912C912D2381E047
:100A100090E021F480E002C080E090E0DF91CF918F
:100A20000895CF92DF92EF92FF920F931F93CF938F
:100A3000DF936C017A01EB01E60EF71E00E010E097
:100A4000CE15DF0561F06991D601ED91FC91019021
:100A5000F081E02DC6010995080F191FF1CFC801DB
:100A6000DF91CF911F910F91FF90EF90DF90CF908A
:100A700008956115710581F0DB010D900020E9F703
:100A8000AD0141505109461B570BDC01ED91FC9122
:100A90000280F381E02D099480E090E00895DC016C
:100AA000ED91FC910190F081E02D09940F931F933B
:100AB000CF93DF93EC016DE00E944F058C016AE05B
:100AC000CE010E944F05800F911FDF91CF911F91A2
:100AD0000F9108950F931F93CF93DF93EC010E9422
:100AE00039058C01CE010E945605800F911FDF91C0
:100AF000CF911F910F9108950E94EA0388EC91E035
:100B00000E94FD090E94A601C0E0D0E00E94B4014D
:100B10002097E1F30E940000F9CF8091C4019091E9
:100B2000C5012091C6013091C701821B930B8F73C1
:100B3000992708952091C4013091C5018091C60183
:100B40009091C7012817390749F0E091C601F0914B
:100B5000C701EC57FE4F808190E008958FEF9FEF23
:100B600008952091C4013091C5018091C6019091F2
:100B7000C70128173907A9F0E091C601F091C70114
:100B8000EC57FE4F80812091C6013091C7012F5F45
:100B90003F4F2F7333273093C7012093C60190E056
:100BA00008958FEF9FEF0895CF93DF93C091C40115
:100BB000D091C5012196CF73DD278091C601909118
:100BC000C701C817D90799F082E00E948F078F3FAD
:100BD0002FEF920761F0E091C401F091C501EC574D
:100BE000FE4F8083D093C501C093C401DFCFDF9156
:100BF000CF91089583E00C94F3090F931F93CF9343
:100C0000DF931F92CDB7DEB78C01698380910E010F
:100C1000882359F041E050E0BE016F5F7F4F83E0D1
:100C20000E94C007181619063CF081E090E0F80118
:100C30009383828380E090E00F90DF91CF911F91AA
:100C40000F910895FC0120812E5F208342E450E043
:100C50006CE471E080E80C945B08FC018181908178
:100C6000913A59F4813209F04BC047E050E067E017
:100C700071E080E00E945B0845C0913209F040C0FD
:100C8000803239F467E070E087E091E00E949F08CD
:100C900039C0823209F034C0828180930E01809184
:100CA000070190910801A0910901B0910A01803BD0
:100CB0009440A105B10531F580910E0180FD12C06F
:100CC00087E797E790930108809300082BE088E17D
:100CD00090E00FB6F894A895809360000FBE209323
:100CE000600010C088E10FB6F89480936000109205
:100CF00060000FBEA895109201081092000802C073
:100D000080E0089581E0089508951092790110928D
:100D1000780188EE93E0A0E0B0E080937A019093B0
:100D20007B01A0937C01B0937D0188E491E09093D6
:100D300077018093760108954F925F926F927F9230
:100D40008F929F92AF92BF92CF92DF92EF92FF92DB
:100D50000F931F93CF93DF93EC012A013B0189018D
:100D600064E270E00E94770C6AE67AE0CE010E94AD
:100D7000DD0C69E773E0CE010E94EB0C6CEB71E0D7
:100D8000CE010E94DD0C6CEB71E0CE010E94EB0CF9
:100D900001501109C12CD12C7601C39404C0CC0C94
:100DA000DD1CEE1CFF1C0A95D2F7812C912C5401FE
:100DB0008394C114D104E104F10479F184E088162C
:100DC0009104A104B10419F408E713E002C00CEB8C
:100DD00011E0D701C60184219521A621B721B801D0
:100DE000892B8A2B8B2B41F0CE010E94DD0CB801A0
:100DF000CE010E94EB0C07C0CE010E94EB0CB801A3
:100E0000CE010E94DD0C8FEF881A980AA80AB80A52
:100E1000F694E794D794C794CCCF60E070E0CE010D
:100E2000DF91CF911F910F91FF90EF90DF90CF90C6
:100E3000BF90AF909F908F907F906F905F904F90FA
:100E40000C94EB0C615030F02091F100FC012083F8
:100E50000196F8CF289884E68093CF0108952FB7A4
:100E6000FC012083F89467706093E9000895CF93A4
:100E7000DF931F92CDB7DEB7682FCE0101960E9497
:100E80002F078091F20099819FBF0F90DF91CF9142
:100E90000895FF920F931F93CF93DF9300D0CDB7A8
:100EA000DEB7F62E8A019091CE01992311F057FFFB
:100EB00003C08FEF9FEF2BC0682FCE0101967A837E
:100EC0000E942F078091F20090E0A8017A8180179C
:100ED00091070CF4AC01EF2DF72FF40E84E6FE160B
:100EE00039F028988093CF019091F1009193F7CF3A
:100EF0004115510521F08091F200882321F089816C
:100F00008FBFCA0104C08BE68093E800F8CF0F9032
:100F10000F90DF91CF911F910F91FF900895CF9384
:100F2000DF931F92CDB7DEB741E050E0BE016F5FA7
:100F30007F4F0E944907019719F4898190E002C010
:100F40008FEF9FEF0F90DF91CF910895CF93DF93B5
:100F50001F92CDB7DEB7682FCE0101960E942F07F2
:100F60009091E800892F807295FF04C09091F20063
:100F700080E4891B99819FBF0F90DF91CF910895E5
:100F80004F925F926F927F928F929F92AF92BF9299
:100F9000CF92DF92EF92FF920F931F93CF93DF9345
:100FA0001F92CDB7DEB7582E7B01A42E952E8091CF
:100FB000CE01882369F0042F152F8AEFB82E852DD6
:100FC0008072782E9AE3892E852D8074682E11C048
:100FD0008FEF9FEF53C0852D0E94A607482E8111E9
:100FE0000CC0BA94A9F361E070E080E090E00E9448
:100FF000C4030115110579F737C0282F30E0021717
:1010000013070CF4402EC42CD12C0C191D09652D8E
:10101000CE0101960E942F07772039F04A948FEF76
:101020004816B1F01092F100F9CFF701842D57FE68
:1010300007C0815058F094919093F1003196F9CF08
:10104000815020F091919093F100FACFEC0CFD1CAF
:101050008091E80085FF0FC00115110511F46110A2
:101060000AC089818FBFC5CF5D9884E68093D00187
:101070008A2D992D03C08092E800F3CF0F90DF9165
:10108000CF911F910F91FF90EF90DF90CF90BF9085
:10109000AF909F908F907F906F905F904F9008954A
:1010A0001092E9001092CD011092CC019093CB01E7
:1010B0008093CA010895CF93DF93FB0120E030E0D5
:1010C000DEEF24173507A1F187FF02C0C49101C0EC
:1010D000C081A091CC01B091CD016091CA01709105
:1010E000CB01A617B707B4F49091E8009570E1F32F
:1010F0009091E80092FD1EC0C093F1006091CC0178
:101100007091CD016F5F7F4F6F737727672B11F45D
:10111000D093E8006091CC017091CD016F5F7F4F5B
:101120007093CD016093CC012F5F3F4F3196C9CFB3
:10113000C90102C08FEF9FEFDF91CF9108951F93F8
:10114000CF93DF931F92CDB7DEB7162F2091E80023
:1011500022FFFCCF612F79830E9422078BEF8093BF
:10116000E800812F7981972F0F90DF91CF911F9108
:101170000895CF93DF931F92CDB7DEB71982CE01CA
:1011800001960E942206CE0101960E94980A89814A
:1011900090E00F90DF91CF9108951F920F920FB6BC
:1011A0000F921124EF92FF920F931F932F933F936F
:1011B0004F935F936F937F938F939F93AF93BF935F
:1011C000EF93FF93CF93DF93CDB7DEB76297DEBF88
:1011D000CDBF1092E9008091E80083FFE7C068E08E
:1011E000CE010A960E94220782EF8093E8009A853A
:1011F00097FF05C08091E80080FFFCCF03C08EEF11
:101200008093E800892F807609F0B5C08B85811125
:1012100005C01092F1001092F100C1C0282F2D7F5F
:10122000213009F4BCC0853049F48091E80080FF8A
:10123000FCCF8C8580688093E300B1C0863009F0D4
:1012400072C02D85E888F988223071F580E090E041
:101250002A8B0E9450080E94B90899E08E010F5F06
:101260001F4FF801392F11923A95E9F799832A898E
:101270002A8391E09E8390E898879AEF998720913E
:10128000CC013091CD01275F3F4F3C832B838D8371
:10129000C7010E94500849E050E0B80180E00E9478
:1012A0005B080E94B9087BC0C7012A8B0E945008C6
:1012B0002A89223241F482E290E00E94A30A892B1B
:1012C00009F06DC070C0213069F488899989089748
:1012D00011F42093C9018091C901882389F063E941
:1012E00071E016C0233009F05EC08C85882359F068
:1012F000823061F0813009F056C067EB71E008C0C0
:1013000065EA71E005C061EF71E002C06FEC71E069
:101310006115710509F447C0FB01449150E080E874
:101320000E945B083CC0873009F43DC0883021F43E
:1013300081E08093F10033C0893089F5937099F58D
:10134000EFE8F1E081E021E096E38093E90020936B
:10135000EB0034913093EC009093ED008F5F319669
:10136000853099F78EE78093EA001092EA008C8529
:101370008093CE0114C0888999890E9450088E8577
:10138000811105C0CE010A960E942D0606C082304A
:1013900051F4CE010A960E94CB0A882321F08EEFE9
:1013A0008093E80003C081E28093EB0062960FB661
:1013B000F894DEBF0FBECDBFDF91CF91FF91EF91CB
:1013C000BF91AF919F918F917F916F915F914F915D
:1013D0003F912F911F910F91FF90EF900F900FBEB3
:1013E0000F901F9018958093E9008091F200882358
:1013F00019F08AE38093E80008951092CE0181E00D
:101400008093D70080EA8093D80082E189BD09B437
:1014100000FEFDCF61E070E080E090E00E94C40338
:1014200080E98093D8008CE08093E2001092E00085
:10143000559A209A08951F920F920FB60F92112479
:101440002F933F934F935F936F937F938F939F93CC
:10145000AF93BF93EF93FF938091E1001092E1006F
:1014600083FF0FC01092E90091E09093EB0010927F
:10147000EC0092E39093ED001092CE0198E09093EF
:10148000F00082FF26C083E00E94F30982E00E9400
:101490003707882321F086E791E00E94D4058091E8
:1014A000D001882339F08091D00181508093D00100
:1014B000882369F08091CF01882359F08091CF0172
:1014C00081508093CF01811104C0289A02C05D9A97
:1014D000F1CFFF91EF91BF91AF919F918F917F914C
:1014E0006F915F914F913F912F910F900FBE0F9091
:1014F0001F901895FF920F931F93CF93DF93EC01EA
:10150000F62EE881F9810480F581E02D09958C01A2
:10151000E881F9810680F781E02D6F2DCE010995D4
:10152000C8019927DF91CF911F910F91FF900895E6
:10153000FC0120812F5F208349E150E065E772E0E4
:1015400080E80C945B0845E650E06EE872E080E8C5
:101550000C945B08EF92FF920F931F93CF93DF934E
:101560001F92CDB7DEB789838B017A0141E050E04D
:10157000BE016F5F7F4F84E00E94C007A701B801E2
:1015800084E40E94C0070F90DF91CF911F910F91CB
:10159000FF90EF900895FC0191818081813A31F4B0
:1015A00081E0913091F0933089F411C0813271F46F
:1015B0009B3021F482818093100105C09A3031F470
:1015C000828180930F0181E00895089580E008955D
:1015D00048E050E082E00C94AA0ACF93DF93DC014C
:1015E000683818F0E8E7E60F25C0E62FF0E067FF5F
:1015F00011C0E058F10981E090E001C0880FEA9540
:10160000EAF714969C911497982B14969C93149730
:10161000E0E010C0EB50FE4FE491EE2309F440C02F
:10162000E7FF08C014968C911497826014968C93EF
:101630001497EF7716968C9116978E1741F117969F
:101640008C9117978E1719F118968C9118978E1701
:10165000F1F019968C9119978E17C9F01A968C9102
:101660001A978E17A1F01B968C911B978E1779F005
:1016700080E090E0ED01C80FD91F2E81211102C03A
:10168000EE8305C0019686309105A1F709C0BD0122
:101690006C5F7F4FCD010E94E80A81E090E008C0B6
:1016A00081E090E013969C938E93129780E090E0F7
:1016B000DF91CF910895683818F0E8E7E60F25C06C
:1016C000E62FF0E067FF12C0E058F10921E030E0BA
:1016D00001C0220FEA95EAF72095DC0114963C91AF
:1016E0001497322314963C93E0E00FC0EB50FE4F6A
:1016F000E491EE2329F1E7FF08C0DC0114962C9158
:1017000014972D7F14962C93EF7720E030E0EE2392
:1017100051F0DC01A20FB31F16964C9116974E1391
:1017200002C016961C922F5F3F4F2630310579F785
:10173000BC016C5F7F4F0E94E80A81E090E0089551
:1017400080E090E00895FC011682178210861186D1
:10175000128613861482BC016C5F7F4F0C94E80ADA
:101760001092DD011092D4011092D3018AE591E02C
:101770009093D2018093D10108951F920F920FB6DA
:101780000F9211242F933F934F935F936F937F9307
:101790008F939F93AF93BF93EF93FF938091DF015C
:1017A0000E94E8042091E3013091E4012F5F3F4F54
:1017B0003093E4012093E3019091E201953618F013
:1017C00096E09093DE019091DE019430C9F128F407
:1017D000923069F09330D1F05EC0953009F451C079
:1017E000963009F058C091E09093AF0251C081113A
:1017F00052C02091E3013091E4012436310508F410
:1018000042C01092AF021092E2011CC0813009F078
:1018100042C0E091E20191E09E0F9093E201F0E07E
:101820002091E3013091E401EE0FFF1FE252FE4FE1
:10183000308727831092E4011092E30194E029C0DD
:10184000811117C0E091E20191E09E0F9093E201B7
:10185000F0E02091E3013091E401EE0FFF1FE2522E
:10186000FE4F308727831092E4011092E30193E04A
:1018700010C02091E3013091E4012536310558F084
:1018800007C0811108C01092E4011092E30103C067
:1018900095E09093DE019091E1019923B9F08111D7
:1018A0000AC08091E001882321F08091E00161E08D
:1018B00009C02D9A0BC08091E001882331F08091FE
:1018C000E00160E00E94B20401C02D98FF91EF9109
:1018D000BF91AF919F918F917F916F915F914F9148
:1018E0003F912F910F900FBE0F901F901895CF939F
:1018F000DF93EB011092710061E085E00E947904B2
:1019000060E085E00E94B2049E01442737FD4095C7
:10191000542F60E47FE180E090E00E94320D82E08D
:101920008093900081E18093910030939700209301
:101930009600C90163E070E00E94FC0C709399006E
:1019400060939800DF91CF9108958F929F92AF920C
:10195000BF92CF92DF92EF92FF926A017B014530F6
:1019600051056105710500F10E94A1034B015C0165
:1019700084E0C81AD108E108F108C80CD91CEA1C97
:10198000FB1CC814D904EA04FB0438F40E94A10328
:1019900086169706A806B906C8F30E94A1036C151F
:1019A0007D058E059F05C8F3FF90EF90DF90CF90E7
:1019B000BF90AF909F908F900895209190002068E5
:1019C000209390006115710529F0AB0160E070E093
:1019D0000C94A50C0895209190002F7720939000EF
:1019E0006115710529F0AB0160E070E00C94A50C65
:1019F0000895F8940C94570DAA1BBB1B51E107C026
:101A0000AA1FBB1FA617B70710F0A61BB70B881F8E
:101A1000991F5A95A9F780959095BC01CD0108951D
:101A2000A1E21A2EAA1BBB1BFD010DC0AA1FBB1FE2
:101A3000EE1FFF1FA217B307E407F50720F0A21B54
:101A4000B30BE40BF50B661F771F881F991F1A94C1
:101A500069F760957095809590959B01AC01BD01EB
:101A6000CF010895052E97FB1EF400940E94490DA6
:101A700057FD07D00E94100D07FC03D04EF40C94C4
:101A8000490D50954095309521953F4F4F4F5F4FF1
:101A9000089590958095709561957F4F8F4F9F4FDA
:101AA0000895EE0FFF1F0590F491E02D0994F8942E
:021AB000FFCF66
:101AB200010100C800000000E10000000000000178
:101AC2000142424320312048440042424320322016
:101AD200484400495456204844004368616E6E658C
:101AE2006C2034204844004368616E6E656C20357A
:101AF2002048440000000000FD0511058D05B105D8
:101B02009A05FA05D405000000007A0A1105ED0ACB
:041B12005B0BA30BBB
:00000001FF
