:100000000C9482010C94AA010C94AA010C94AA01EC
:100010000C94AA010C94AA010C94AA010C94AA01B4
:100020000C94AA010C94AA010C94C70C0C94790BA3
:100030000C94AA010C94AA010C94AA010C94AA0194
:100040000C94AA010C94AA010C94AA010C94AA0184
:100050000C94AA010C94AA010C94AA010C94060514
:100060000C94AA010C94AA010C94AA010C94AA0164
:100070000C94AA010C94AA010C94AA010C94AA0154
:100080000C94690E0C94AA010C94AA010C94AA0178
:100090000C94AA010C94AA010C94AA010C94AA0134
:1000A0000C94AA010C94AA010C94AA0140064306E0
:1000B00036063A0664066406640647064B064F0693
:1000C0005506590664065F06070605040100080A7E
:1000D0000B0C0D090000000200080E0000030401D3
:1000E000000B000000000000000000000000000005
:1000F0000000040802011040804010204080408031
:1001000008020401804020100201108010204040AD
:1001100004040404040304050202020204030202AC
:100120000202060606060606040402020204000095
:1001300000002300260029002C002F0000000000F2
:10014000250028002B002E003100000000002400B4
:1001500027002A002D003000080B000202020100D7
:10016000090400000102020000052400100105241A
:10017000010101042402060524060001070581038C
:1001800010004009040100020A00000007050202F5
:100190004000000705830240000000C18081C112B9
:1001A00001000202000040412336800001010200EC
:1001B00001120100020000004041233680000101CD
:1001C0000200011803410072006400750069006EAE
:1001D000006F0020004C004C0043002203410072DD
:1001E000006400750069006E006F0020004C00651F
:1001F000006F006E006100720064006F000403096C
:100200000400000000000000002A2B28000000006D
:1002100000000000000000000000000000000000DE
:10022000002C9EB4A0A1A2A434A6A7A5AE362D375B
:1002300038271E1F20212223242526B333B62EB7AC
:10024000B89F8485868788898A8B8C8D8E8F9091C4
:1002500092939495969798999A9B9C9D2F3130A351
:10026000AD350405060708090A0B0C0D0E0F101119
:1002700012131415161718191A1B1C1DAFB1B0B59F
:10028000000904020001030000000921010100012E
:100290002265000705840340000105010902A10150
:1002A0000901A1008501050919012903150025018E
:1002B00095037501810295017505810305010930DA
:1002C000093109381581257F750895038106C0C05D
:1002D00005010906A1018502050719E029E71500B6
:1002E0002501750195088102950175088103950620
:1002F0007508150025650507190029658100C000EE
:1003000031095C0E11241FBECFEFDAE0DEBFCDBF96
:1003100011E0A0E0B1E0E8E0F1E202C005900D924A
:10032000A03EB107D9F723E0A0EEB1E001C01D92D5
:10033000A034B207E1F713E0C4E0D3E004C0229791
:10034000FE010E945C10C030D107C9F70E94E0078F
:100350000C9402100C94000060E08AE00E94650694
:1003600061E08AE00E949E0661E089E00E946506E5
:1003700060E089E00E949E0660E875E286E092E017
:100380000E94300980E00E94FB050C94F10761E0B7
:1003900089E00E949E0664E671E086E092E00E9499
:1003A00056078091E0019091E10101969093E1015F
:1003B0008093E00121E020930401069731F481E06D
:1003C00090E09093E1018093E00108950F931F93D3
:1003D000CF93DF9361E089E00E949E066DE671E0B5
:1003E00086E092E00E94560725E030E040E050E0D1
:1003F00061E070E080E090E00E941D08FB01EE0FDC
:10040000FF1FEE0FFF1FE75EFE4F80819181A281EB
:10041000B3818093E2019093E301A093E401B09350
:10042000E5010397A105B105E9F424E030E040E0DF
:1004300050E060E070E0CB010E941D08FB01EE0F70
:10044000FF1FEE0FFF1FEB5FFE4F80819181A281A6
:10045000B3818093E6019093E701A093E801B09304
:10046000E90111C029E030E040E050E060E070E0D8
:10047000CB010E941D086093E6017093E701809311
:10048000E8019093E90129E030E040E050E060E0CD
:1004900070E0CB010E941D086093EA017093EB01AC
:1004A0008093EC019093ED01C2EED1E08E01499171
:1004B0005991699179912AE030E086E092E00E94BA
:1004C000CE07D801ED91FC91EE0FFF1FEE0FFF1F3D
:1004D000EF5CFE4F408151816281738128E130E001
:1004E0008EEE91E00E94480968EC70E080E090E0B8
:1004F0000E947F05B1E0CE3EDB07C1F660E089E0F7
:10050000DF91CF911F910F910C949E060F931F9333
:10051000CF938AE00E94D4069093FC018093FB0164
:100520006AE070E080E090E00E947F058091FB012E
:100530009091FC01892BD1F48091F9019091FA01FD
:100540000197A1F40E9450050091F1011091F20170
:100550002091F3013091F401601B710B820B930B1E
:10056000653171058105910508F0F4C18091FB01A9
:100570009091FC01019789F58091F9019091FA0120
:10058000892B59F50E9450050091F5011091F60153
:100590002091F7013091F801601B710B820B930BD6
:1005A0006531710581059105C0F060E089E00E9428
:1005B0009E068091F0018111D8C18091EF018111D7
:1005C000D4C10E94C7010E9450056093F10170934D
:1005D000F2018093F3019093F4018091FB019091DB
:1005E000FC01892BC1F48091EF01811114C00E949C
:1005F00050050091F5011091F6012091F70130911D
:10060000F801601B710B820B930B693E73408105EF
:10061000910508F0ADC18091FB019091FC0101971B
:1006200071F58091F9019091FA01892B41F50E94B1
:1006300050050091F5011091F6012091F7013091DC
:10064000F801601B710B820B930B653171058105FD
:100650009105A8F08091F0018111B8C18091EF015E
:10066000813009F0B3C10E94E6010E9450056093F9
:10067000F1017093F2018093F3019093F401809162
:10068000FB019091FC01892BC1F4C091EF01C130B5
:10069000A1F40E9450050091F5011091F6012091FE
:1006A000F7013091F801601B710B820B930B693ECF
:1006B00073408105910508F08CC18091FB019091F8
:1006C000FC019093FA018093F9018091E0019091EF
:1006D000E1010197D1F5809104018130B1F566E720
:1006E00071E086E092E00E94560728E130E041E0A8
:1006F0005CE060EC70E08EEE91E00E94480968ECEE
:1007000070E080E090E00E947F0528E130E041E069
:100710005CE060EC70E08EEE91E00E94480968ECCD
:1007200070E080E090E00E947F0528E130E045E045
:100730005CE060EC70E08EEE91E00E94480910925F
:10074000040160E089E00E949E068091E0019091A2
:10075000E1010297D1F5809104018130B1F56FE795
:1007600071E086E092E00E94560728E130E041E027
:100770005CE060EC70E08EEE91E00E94480968EC6D
:1007800070E080E090E00E947F0528E130E044E0E6
:100790005CE060EC70E08EEE91E00E94480968EC4D
:1007A00070E080E090E00E947F0528E130E041E0C9
:1007B0005CE060EC70E08EEE91E00E9448091092DF
:1007C000040160E089E00E949E068091E001909122
:1007D000E1010397D1F5809104018130B1F568E81A
:1007E00071E086E092E00E94560728E130E041E0A7
:1007F0005CE060EC70E08EEE91E00E94480968ECED
:1008000070E080E090E00E947F0528E130E047E062
:100810005CE060EC70E08EEE91E00E94480968ECCC
:1008200070E080E090E00E947F0528E130E048E041
:100830005CE060EC70E08EEE91E00E94480910925E
:10084000040160E089E00E949E068091E0019091A1
:10085000E1010497D1F5809104018130B1F56FE891
:1008600071E086E092E00E94560728E130E042E025
:100870005CE060EC70E08EEE91E00E94480968EC6C
:1008800070E080E090E00E947F0528E130E042E0E7
:100890005CE060EC70E08EEE91E00E94480968EC4C
:1008A00070E080E090E00E947F0528E130E047E0C2
:1008B0005CE060EC70E08EEE91E00E9448091092DE
:1008C000040160E089E00E949E068091E001909121
:1008D000E101059709F096C080910401813009F08B
:1008E00091C06CE971E086E092E00E94560728E131
:1008F00030E041E05CE060EC70E08EEE91E00E9460
:10090000480968EC70E080E090E00E947F0528E1F3
:1009100030E047E05CE060EC70E08EEE91E00E9439
:10092000480968EC70E080E090E00E947F0528E1D3
:1009300030E041E05CE060EC70E08EEE91E00E941F
:1009400048091092040160E089E0CF911F910F9156
:100950000C949E060E9450056093F5017093F60179
:100960008093F7019093F80101CE1092F0012BCE05
:1009700069EA71E086E092E00E945607C1E0C09308
:10098000F0010E9450056093F5017093F601809389
:10099000F7019093F801C093EF0161E089E00E94B4
:1009A0009E066CE271E080E090E00E947F0560E0CE
:1009B00089E00E949E066CE271E080E090E00E9477
:1009C0007F0561E089E00E949E0625CE1092F0012D
:1009D0004CCE63EB71E086E092E00E945607C09334
:1009E000F0010E9450056093F5017093F601809329
:1009F000F7019093F8011092EF0161E089E00E9405
:100A00009E065BCECF911F910F9108951F920F927A
:100A10000FB60F9211242F933F938F939F93AF9311
:100A2000BF938091FE019091FF01A0910002B091CF
:100A300001023091FD0123E0230F2D3720F40196B0
:100A4000A11DB11D05C026E8230F0296A11DB11DF1
:100A50002093FD018093FE019093FF01A09300027B
:100A6000B09301028091020290910302A0910402CE
:100A7000B09105020196A11DB11D809302029093D1
:100A80000302A0930402B0930502BF91AF919F911E
:100A90008F913F912F910F900FBE0F901F9018953F
:100AA0002FB7F8946091FE017091FF0180910002D0
:100AB000909101022FBF08953FB7F89480910202F0
:100AC00090910302A0910402B091050226B5A89B63
:100AD00005C02F3F19F00196A11DB11D3FBF66272C
:100AE000782F892F9A2F620F711D811D911D42E071
:100AF000660F771F881F991F4A95D1F70895CF92E7
:100B0000DF92EF92FF92CF93DF936B017C010E9403
:100B10005C05EB01C114D104E104F10479F00E94F9
:100B20005C056C1B7D0B683E7340A0F381E0C81A26
:100B3000D108E108F108C851DC4FECCFDF91CF912B
:100B4000FF90EF90DF90CF900895789484B5826005
:100B500084BD84B5816084BD85B5826085BD85B561
:100B6000816085BDEEE6F0E0808181608083E1E810
:100B7000F0E0108280818260808380818160808348
:100B8000E0E8F0E0808181608083E1E9F0E080814D
:100B900082608083808181608083E0E9F0E08081F1
:100BA00081608083E1ECF0E08081846080838081DB
:100BB00082608083808181608083E3ECF0E08081CB
:100BC00081608083E0ECF0E0808182608083E2ECF1
:100BD000F0E0808181608083EAE7F0E080818460DA
:100BE0008083808182608083808181608083808136
:100BF000806880830895823108F08251E82FF0E008
:100C0000E853FF4FE49180917B00E3FB222720F91A
:100C100030E095E0220F331F9A95E1F78F7D822B0C
:100C200080937B00E7708091590120E4829FC0018E
:100C30001124E82BE0937C0080917A0080648093FB
:100C40007A0080917A0086FDFCCF80917800209117
:100C5000790090E0922B089590E0FC013197EE30FE
:100C6000F10590F5EA5AFF4F0C945A1080918000DC
:100C70008F7703C0809180008F7D809380000895DE
:100C800084B58F7702C084B58F7D84BD089580912F
:100C900090008F7707C0809190008F7D03C0809176
:100CA0009000877F8093900008958091C0008F7797
:100CB00003C08091C0008F7D8093C0000895809113
:100CC000C200877F8093C2000895CF93DF9390E0A6
:100CD000FC01EE50FF4F2491FC01E05FFE4F849138
:100CE000882349F190E0880F991FFC01E65BFE4FD5
:100CF000A591B491845C9E4FFC01C591D4919FB79E
:100D0000611108C0F8948C91209582238C9388817E
:100D100082230AC0623051F4F8948C91322F3095BE
:100D200083238C938881822B888304C0F8948C91D0
:100D3000822B8C939FBFDF91CF9108950F931F93C8
:100D4000CF93DF931F92CDB7DEB7282F30E0F901A4
:100D5000EC52FF4F8491F901EE50FF4F1491F901CD
:100D6000E05FFE4F04910023C9F0882321F06983DE
:100D70000E942C066981E02FF0E0EE0FFF1FE45C7B
:100D8000FE4FA591B4919FB7F8948C91611103C067
:100D90001095812301C0812B8C939FBF0F90DF9111
:100DA000CF911F910F910895CF93DF93282F30E0BB
:100DB000F901EC52FF4F8491F901EE50FF4FD491AD
:100DC000F901E05FFE4FC491CC2391F081110E94A4
:100DD0002C06EC2FF0E0EE0FFF1FE25DFE4FA59119
:100DE000B4912C912D2381E090E021F480E002C0A9
:100DF00080E090E0DF91CF910895CF92DF92EF9263
:100E0000FF920F931F93CF93DF936C017A01EB0155
:100E1000E60EF71E00E010E0CE15DF0561F06991E7
:100E2000D601ED91FC910190F081E02DC60109956C
:100E3000080F191FF1CFC801DF91CF911F910F91BA
:100E4000FF90EF90DF90CF9008956115710581F0CC
:100E5000DB010D900020E9F7AD0141505109461B1F
:100E6000570BDC01ED91FC910280F381E02D099498
:100E700080E090E00895DC01ED91FC910190F0811B
:100E8000E02D09940F931F93CF93DF93EC016DE056
:100E90000E943B078C016AE0CE010E943B07800F55
:100EA000911FDF91CF911F910F9108950F931F9381
:100EB000CF93DF93EC010E9425078C01CE010E94A5
:100EC0004207800F911FDF91CF911F910F910895DD
:100ED0008F929F92AF92BF92CF92DF92EF92FF924A
:100EE0000F931F93CF93DF93CDB7DEB7A1970FB6C4
:100EF000F894DEBF0FBECDBF7C01C42EE52FCB0121
:100F0000D22E19A221E02D1510F02AE0D22E8E014A
:100F10000F5D1F4F8D2C912CA12CB12C6C2D7E2F91
:100F2000A50194010E9419108C2DD29E80191124C4
:100F3000015011098A3014F4805D01C0895CF80108
:100F40008083211531054105510521F0C22EE32F83
:100F5000CA01E4CFB801C7010E942507A1960FB6C8
:100F6000F894DEBF0FBECDBFDF91CF911F910F91DF
:100F7000FF90EF90DF90CF90BF90AF909F908F90B9
:100F800008952115310541F4DC01ED91FC910190AA
:100F9000F081E02D642F09940C9468070F931F9340
:100FA000CF93DF93EC010E94C1078C01CE010E9418
:100FB0004207800F911FDF91CF911F910F910895EC
:100FC0000E94A50588E592E00E94A90C0E94AC0150
:100FD000C0E0D0E00E9486022097E1F30E9400006A
:100FE000F9CF009729F0BC0180E090E00C94F90F54
:100FF0000895CF93DF9300D000D0CDB7DEB79B012B
:10100000AC01611571058105910569F069833A8329
:101010004B835C830E94F40F29813A814B815C8170
:101020000E943B1003C060E070E0CB010F900F9076
:101030000F900F90DF91CF910895CF92DF92EF92B2
:10104000FF926B017C01621773078407950764F4B4
:10105000CA01B9016C197D098E099F090E94F9071F
:101060006C0D7D1D8E1D9F1DFF90EF90DF90CF902A
:10107000089580915402909155022091560230912A
:101080005702821B930B8F73992708952091540266
:1010900030915502809156029091570228173907D6
:1010A00049F0E0915602F0915702EC5EFD4F8081CD
:1010B00090E008958FEF9FEF0895209154023091B2
:1010C0005502809156029091570228173907A9F0CE
:1010D000E0915602F0915702EC5EFD4F8081209125
:1010E0005602309157022F5F3F4F2F7333273093B3
:1010F00057022093560290E008958FEF9FEF0895D6
:10110000CF93DF93C0915402D09155022196CF73B3
:10111000DD278091560290915702C817D90799F0A0
:1011200082E00E943B0A8F3F2FEF920761F0E0912F
:101130005402F0915502EC5EFD4F8083D09355022E
:10114000C0935402DFCFDF91CF91089583E00C94D8
:101150009F0C0F931F93CF93DF931F92CDB7DEB7F2
:101160008C01698380916101882359F041E050E04E
:10117000BE016F5F7F4F83E00E946C0A181619064C
:101180003CF081E090E0F8019383828380E090E07E
:101190000F90DF91CF911F910F910895FC01208155
:1011A0002E5F208342E450E068E571E080E80C9413
:1011B000070BFC0181819081913A59F4813209F049
:1011C0004BC047E050E06AE571E080E00E94070B09
:1011D00045C0913209F040C0803239F467E070E0D8
:1011E0008AE591E00E944B0B39C0823209F034C08D
:1011F00082818093610180915A0190915B01A0915D
:101200005C01B0915D01803B9440A105B10531F5D1
:101210008091610180FD12C087E797E790930108F4
:10122000809300082BE088E190E00FB6F894A89531
:10123000809360000FBE2093600010C088E10FB65D
:10124000F89480936000109260000FBEA8951092F1
:1012500001081092000802C080E0089581E008951E
:101260000895109209021092080288EE93E0A0E01F
:10127000B0E080930A0290930B02A0930C02B0930B
:101280000D0283EC91E0909307028093060208958B
:101290004F925F926F927F928F929F92AF92BF9286
:1012A000CF92DF92EF92FF920F931F93CF93DF9332
:1012B000EC012A013B01890164E270E00E94230FE6
:1012C0006AE67AE0CE010E94890F69E773E0CE01F9
:1012D0000E94970F6CEB71E0CE010E94890F6CEBBE
:1012E00071E0CE010E94970F01501109C12CD12C41
:1012F0007601C39404C0CC0CDD1CEE1CFF1C0A95C7
:10130000D2F7812C912C54018394C114D104E104AF
:10131000F10479F184E088169104A104B10419F470
:1013200008E713E002C00CEB11E0D701C6018421ED
:101330009521A621B721B801892B8A2B8B2B41F04F
:10134000CE010E94890FB801CE010E94970F07C0FD
:10135000CE010E94970FB801CE010E94890F8FEF36
:10136000881A980AA80AB80AF694E794D794C794FA
:10137000CCCF60E070E0CE01DF91CF911F910F9153
:10138000FF90EF90DF90CF90BF90AF909F908F90A5
:101390007F906F905F904F900C94970F615030F05A
:1013A0002091F100FC0120830196F8CF289884E673
:1013B00080935F0208952FB7FC012083F894677033
:1013C0006093E9000895CF93DF931F92CDB7DEB706
:1013D000682FCE0101960E94DB098091F20099816D
:1013E0009FBF0F90DF91CF910895FF920F931F93AE
:1013F000CF93DF9300D0CDB7DEB7F62E8A01909160
:101400005E02992311F057FF03C08FEF9FEF2BC0AF
:10141000682FCE0101967A830E94DB098091F20049
:1014200090E0A8017A81801791070CF4AC01EF2DB0
:10143000F72FF40E84E6FE1639F0289880935F02A9
:101440009091F1009193F7CF4115510521F08091D2
:10145000F200882321F089818FBFCA0104C08BE686
:101460008093E800F8CF0F900F90DF91CF911F91FC
:101470000F91FF900895CF93DF931F92CDB7DEB702
:1014800041E050E0BE016F5F7F4F0E94F509019778
:1014900019F4898190E002C08FEF9FEF0F90DF91E8
:1014A000CF910895CF93DF931F92CDB7DEB7682F0A
:1014B000CE0101960E94DB099091E800892F80728D
:1014C00095FF04C09091F20080E4891B99819FBF31
:1014D0000F90DF91CF9108954F925F926F927F921C
:1014E0008F929F92AF92BF92CF92DF92EF92FF9234
:1014F0000F931F93CF93DF931F92CDB7DEB7582E74
:101500007B01A42E952E80915E02882369F0042F22
:10151000152F8AEFB82E852D8072782E9AE3892EAA
:10152000852D8074682E11C08FEF9FEF53C0852DDD
:101530000E94520A482E81110CC0BA94A9F361E0AE
:1015400070E080E090E00E947F050115110579F7B9
:1015500037C0282F30E0021713070CF4402EC42C9C
:10156000D12C0C191D09652DCE0101960E94DB09B5
:10157000772039F04A948FEF4816B1F01092F100BD
:10158000F9CFF701842D57FE07C0815058F0949190
:101590009093F1003196F9CF815020F09191909382
:1015A000F100FACFEC0CFD1C8091E80085FF0FC024
:1015B0000115110511F461100AC089818FBFC5CFD3
:1015C0005D9884E6809360028A2D992D03C08092F5
:1015D000E800F3CF0F90DF91CF911F910F91FF9013
:1015E000EF90DF90CF90BF90AF909F908F907F90C3
:1015F0006F905F904F9008951092E90010925D02F5
:1016000010925C0290935B0280935A020895CF93EC
:10161000DF93FB0120E030E0DEEF24173507A1F176
:1016200087FF02C0C49101C0C081A0915C02B0914B
:101630005D0260915A0270915B02A617B707B4F47D
:101640009091E8009570E1F39091E80092FD1EC042
:10165000C093F10060915C0270915D026F5F7F4FFB
:101660006F737727672B11F4D093E80060915C02C9
:1016700070915D026F5F7F4F70935D0260935C02BB
:101680002F5F3F4F3196C9CFC90102C08FEF9FEF47
:10169000DF91CF9108951F93CF93DF931F92CDB722
:1016A000DEB7162F2091E80022FFFCCF612F79834F
:1016B0000E94CE098BEF8093E800812F7981972FCC
:1016C0000F90DF91CF911F910895CF93DF931F92D9
:1016D000CDB7DEB71982CE0101960E94CE08CE01A9
:1016E00001960E94440D898190E00F90DF91CF9187
:1016F00008951F920F920FB60F921124EF92FF924E
:101700000F931F932F933F934F935F936F937F9309
:101710008F939F93AF93BF93EF93FF93CF93DF93F9
:10172000CDB7DEB76297DEBFCDBF1092E9008091E2
:10173000E80083FFE7C068E0CE010A960E94CE0968
:1017400082EF8093E8009A8597FF05C08091E800BA
:1017500080FFFCCF03C08EEF8093E800892F807656
:1017600009F0B5C08B85811105C01092F10010926F
:10177000F100C1C0282F2D7F213009F4BCC0853075
:1017800049F48091E80080FFFCCF8C8580688093CD
:10179000E300B1C0863009F072C02D85E888F98871
:1017A000223071F580E090E02A8B0E94FC0A0E94B2
:1017B000650B99E08E010F5F1F4FF801392F1192D1
:1017C0003A95E9F799832A892A8391E09E8390E8E4
:1017D00098879AEF998720915C0230915D02275F8C
:1017E0003F4F3C832B838D83C7010E94FC0A49E055
:1017F00050E0B80180E00E94070B0E94650B7BC09F
:10180000C7012A8B0E94FC0A2A89223241F482E213
:1018100090E00E944F0D892B09F06DC070C02130FF
:1018200069F488899989089711F420935902809165
:101830005902882389F06FE971E016C0233009F05E
:101840005EC08C85882359F0823061F0813009F0C8
:1018500056C063EC71E008C061EB71E005C06DEF4C
:1018600071E002C06BED71E06115710509F447C0CC
:10187000FB01449150E080E80E94070B3CC0873098
:1018800009F43DC0883021F481E08093F10033C039
:10189000893089F5937099F5EBE9F1E081E021E079
:1018A00096E38093E9002093EB0034913093EC00B1
:1018B0009093ED008F5F3196853099F78EE7809396
:1018C000EA001092EA008C8580935E0214C0888939
:1018D00099890E94FC0A8E85811105C0CE010A9665
:1018E0000E94D90806C0823051F4CE010A960E94A7
:1018F000770D882321F08EEF8093E80003C081E20A
:101900008093EB0062960FB6F894DEBF0FBECDBF9A
:10191000DF91CF91FF91EF91BF91AF919F918F9107
:101920007F916F915F914F913F912F911F910F91F7
:10193000FF90EF900F900FBE0F901F90189580931F
:10194000E9008091F200882319F08AE38093E8008F
:10195000089510925E0281E08093D70080EA809320
:10196000D80082E189BD09B400FEFDCF61E070E0DE
:1019700080E090E00E947F0580E98093D8008CE0B1
:101980008093E2001092E000559A209A08951F92E9
:101990000F920FB60F9211242F933F934F935F93A3
:1019A0006F937F938F939F93AF93BF93EF93FF9327
:1019B0008091E1001092E10083FF0FC01092E900D6
:1019C00091E09093EB001092EC0092E39093ED0085
:1019D00010925E0298E09093F00082FF26C083E0B0
:1019E0000E949F0C82E00E94E309882321F086E098
:1019F00092E00E94800880916002882339F08091F3
:101A00006002815080936002882369F080915F02B8
:101A1000882359F080915F02815080935F02811189
:101A200004C0289A02C05D9AF1CFFF91EF91BF9157
:101A3000AF919F918F917F916F915F914F913F9166
:101A40002F910F900FBE0F901F901895FF920F933C
:101A50001F93CF93DF93EC01F62EE881F981048088
:101A6000F581E02D09958C01E881F9810680F781E7
:101A7000E02D6F2DCE010995C8019927DF91CF91F7
:101A80001F910F91FF900895FC0120812F5F20830B
:101A900049E150E061E872E080E80C94070B45E60C
:101AA00050E06AE972E080E80C94070BEF92FF9235
:101AB0000F931F93CF93DF931F92CDB7DEB7898328
:101AC0008B017A0141E050E0BE016F5F7F4F84E0FF
:101AD0000E946C0AA701B80184E40E946C0A0F906E
:101AE000DF91CF911F910F91FF90EF900895FC012E
:101AF00091818081813A31F481E0913091F093308D
:101B000089F411C0813271F49B3021F48281809379
:101B1000630105C09A3031F482818093620181E0D3
:101B20000895089580E0089548E050E082E00C9424
:101B3000560DCF93DF93DC01683818F0E8E7E60F25
:101B400025C0E62FF0E067FF11C0E058F10981E001
:101B500090E001C0880FEA95EAF714969C911497DB
:101B6000982B14969C931497E0E010C0EF5FFD4F04
:101B7000E491EE2309F440C0E7FF08C014968C916D
:101B80001497826014968C931497EF7716968C9125
:101B900016978E1741F117968C9117978E1719F19A
:101BA00018968C9118978E17F1F019968C911997B9
:101BB0008E17C9F01A968C911A978E17A1F01B9662
:101BC0008C911B978E1779F080E090E0ED01C80FA3
:101BD000D91F2E81211102C0EE8305C001968630E7
:101BE0009105A1F709C0BD016C5F7F4FCD010E9437
:101BF000940D81E090E008C081E090E013969C9302
:101C00008E93129780E090E0DF91CF91089568382D
:101C100018F0E8E7E60F25C0E62FF0E067FF12C0F6
:101C2000E058F10921E030E001C0220FEA95EAF71F
:101C30002095DC0114963C911497322314963C9322
:101C4000E0E00FC0EF5FFD4FE491EE2329F1E7FFE5
:101C500008C0DC0114962C9114972D7F14962C93B8
:101C6000EF7720E030E0EE2351F0DC01A20FB31F4C
:101C700016964C9116974E1302C016961C922F5F23
:101C80003F4F2630310579F7BC016C5F7F4F0E94D2
:101C9000940D81E090E0089580E090E00895FC01CB
:101CA0001682178210861186128613861482BC0152
:101CB0006C5F7F4F0C94940D10926D021092640231
:101CC0001092630285ED91E090936202809361022D
:101CD00008951F920F920FB60F9211242F933F93E6
:101CE0004F935F936F937F938F939F93AF93BF9324
:101CF000EF93FF9380916F020E94D40620917302AC
:101D0000309174022F5F3F4F30937402209373021F
:101D100090917202953618F096E090936E02909131
:101D20006E029430C9F128F4923069F09330D1F00A
:101D30005EC0953009F451C0963009F058C091E06A
:101D400090933F0351C0811152C020917302309192
:101D500074022436310508F442C010923F031092F9
:101D600072021CC0813009F042C0E091720291E021
:101D70009E0F90937202F0E02091730230917402F2
:101D8000EE0FFF1FE259FD4F308727831092740238
:101D90001092730294E029C0811117C0E091720281
:101DA00091E09E0F90937202F0E0209173023091C7
:101DB0007402EE0FFF1FE259FD4F30872783109208
:101DC00074021092730293E010C02091730230915C
:101DD00074022536310558F007C0811108C01092F1
:101DE00074021092730203C095E090936E0290917A
:101DF00071029923B9F081110AC080917002882381
:101E000021F08091700261E009C02D9A0BC0809191
:101E10007002882331F08091700260E00E949E067B
:101E200001C02D98FF91EF91BF91AF919F918F913C
:101E30007F916F915F914F913F912F910F900FBEC6
:101E40000F901F901895CF93DF93EB0110927100C4
:101E500061E085E00E94650660E085E00E949E06E4
:101E60009E01442737FD4095542F60E47FE180E0D8
:101E700090E00E943B1082E08093900081E180938B
:101E800091003093970020939600C90163E070E0C1
:101E90000E9405107093990060939800DF91CF9194
:101EA00008958F929F92AF92BF92CF92DF92EF925E
:101EB000FF926A017B01453051056105710500F112
:101EC0000E945C054B015C0184E0C81AD108E1085E
:101ED000F108C80CD91CEA1CFB1CC814D904EA047C
:101EE000FB0438F40E945C0586169706A806B9061E
:101EF000C8F30E945C056C157D058E059F05C8F32F
:101F0000FF90EF90DF90CF90BF90AF909F908F9019
:101F1000089520919000206820939000611571052C
:101F200029F0AB0160E070E00C94510F089520910E
:101F300090002F77209390006115710529F0AB0177
:101F400060E070E00C94510F08958F929F92AF92D1
:101F5000BF92CF92DF92EF92FF92CF93DF93EC018B
:101F6000688179818A819B8161157105810591055F
:101F700021F464E279ED8BE597E02DE133EF41E068
:101F800050E00E943B1049015A019B01AC01A7EAB5
:101F9000B1E40E9460106B017C01ACEEB4EFA501CE
:101FA00094010E946E10C60ED71EE81EF91EF7FEA1
:101FB00006C081E0C81AD108E10880E8F80AC882A2
:101FC000D982EA82FB82C701B6019F77DF91CF9168
:101FD000FF90EF90DF90CF90BF90AF909F908F9049
:101FE00008950E94A50F089580E091E00E94A50F3A
:101FF0000895609300017093010180930201909312
:1020000003010895F8940C948210AA1BBB1B51E1A4
:1020100007C0AA1FBB1FA617B70710F0A61BB70B58
:10202000881F991F5A95A9F780959095BC01CD01FD
:102030000895A1E21A2EAA1BBB1BFD010DC0AA1F09
:10204000BB1FEE1FFF1FA217B307E407F50720F021
:10205000A21BB30BE40BF50B661F771F881F991F9C
:102060001A9469F760957095809590959B01AC01E5
:10207000BD01CF010895052E97FB1EF400940E9428
:10208000521057FD07D00E94191007FC03D04EF4E0
:102090000C94521050954095309521953F4F4F4FDD
:1020A0005F4F089590958095709561957F4F8F4F04
:1020B0009F4F0895EE0FFF1F0590F491E02D0994B6
:1020C0000E947310A59F900DB49F900DA49F800D4A
:1020D000911D11240895B7FF0C9460100E946010A8
:1020E000821B930B0895A29FB001B39FC001A39FD1
:1020F000700D811D1124911DB29F700D811D112441
:08210000911D0895F894FFCF32
:1021080001000000010500000006000000070000B3
:1021180000080000000900000000000000010000A5
:102128000002000000030000000500000006000097
:1021380000000CC000010CC000020CC000030CC061
:1021480000040CC000050CC000060CC000070CC041
:1021580000080CC000090CC0000100E100000000EC
:1021680000000101627574746F6E2031006275742D
:10217800746F6E20320042424320312048440042AE
:1021880042432032204844004954562048440043E2
:1021980068616E6E656C2034204844004368616E47
:1021A8006E656C2035204844004D656E75204D6F76
:1021B8006465004E6F726D616C204D6F6465000040
:1021C800000000A908FD0639085D084608A6088031
:1021D8000800000000260DFD06990D070E4F0E00A1
:00000001FF
