:100000000C947C010C94A4010C94A4010C94A40104
:100010000C94A4010C94A4010C94A4010C94A401CC
:100020000C94A4010C94A4010C9447070C94F905BA
:100030000C94A4010C94A4010C94A4010C94A401AC
:100040000C94A4010C94A4010C94A4010C94A4019C
:100050000C94A4010C94A4010C94A4010C947702B8
:100060000C94A4010C94A4010C94A4010C94A4017C
:100070000C94A4010C94A4010C94A4010C94A4016C
:100080000C94A4010C94A4010C94A4010C94A4015C
:100090000C94A4010C94A4010C94A4010C94A4014C
:1000A0000C94A4010C94A4010C94A4018003830378
:1000B00076037A03A403A403A40387038B038F03AB
:1000C00095039903A4039F030000000200080E009B
:1000D00000030401000B000000000000000000000D
:1000E00000000000000004080201104080401020C1
:1000F00040804080080204018040201002011080EE
:100100001020404004040404040304050202020217
:1001100004030202020206060606060604040202A0
:100120000204000000002300260029002C002F00FC
:1001300000000000250028002B002E0031000000E8
:100140000000240027002A002D00300000C180811B
:10015000C11201000202000040412336800001016B
:10016000020001120100020000004041233680001D
:10017000010102000118034100720064007500696A
:10018000006E006F0020004C004C00430022034131
:100190000072006400750069006E006F0020004C62
:1001A0000065006F006E006100720064006F000463
:1001B00003090400000000000000002A2B280000B2
:1001C000000000000000000000000000000000002F
:1001D0000000002C9EB4A0A1A2A434A6A7A5AE3610
:1001E0002D3738271E1F20212223242526B333B67E
:1001F0002EB7B89F8485868788898A8B8C8D8E8F51
:10020000909192939495969798999A9B9C9D2F3153
:1002100030A3AD350405060708090A0B0C0D0E0FB7
:10022000101112131415161718191A1B1C1DAFB133
:10023000B0B500090402000103000000092101011A
:100240000001226500070584034000010501090241
:10025000A1010901A1008501050919012903150062
:10026000250195037501810295017505810305013D
:100270000930093109381581257F750895038106F4
:10028000C0C005010906A1018502050719E029E79B
:1002900015002501750195088102950175088103F6
:1002A0009506750815002565050719002965810063
:1002B000C0080B0002020201000904000001020252
:1002C0000000052400100105240101010424020698
:1002D0000524060001070581031000400904010000
:1002E000020A000000070502024000000705830221
:1002F00040000000DC08E00911241FBECFEFDAE067
:10030000DEBFCDBF11E0A0E0B1E0E4E5F4E102C062
:1003100005900D92AA32B107D9F721E0AAE2B1E027
:1003200001C01D92A93AB207E1F712E0C8EFD2E08E
:1003300004C02297FE010E94240AC43FD107C9F7D6
:100340000E943D040C941F0A0C94000060E08AE0B7
:100350000E94A50361E08AE00E94DE0361E088E07C
:100360000E94A50360E088E00E94DE0361E089E06E
:100370000E94A50360912A0189E00C94DE0361E0EC
:1003800088E00E94DE0362E370E080E090E00E947B
:10039000F00260E088E00C94DE0361E080912A01C5
:1003A000811160E060932A0189E00C94DE030F93D1
:1003B0001F938AE00E9414049093370180933601C2
:1003C0006AE070E080E090E00E94F00280913601E7
:1003D00090913701892BD1F48091340190913501AE
:1003E0000197A1F40E94C10200912C0110912D01EE
:1003F00020912E0130912F01601B710B820B930B0A
:10040000653171058105910508F053C08091360171
:1004100090913701019749F5809134019091350110
:10042000892B19F50E94C102009130011091310110
:100430002091320130913301601B710B820B930BC1
:10044000653171058105910580F080912B01811145
:100450003BC00E94BF010E94C10260932C017093B7
:100460002D0180932E0190932F0180913601909160
:100470003701892B99F40E94C1020091300110913B
:1004800031012091320130913301601B710B820BDD
:10049000930B693E734081059105C8F48091360144
:1004A0009091370190933501809334011F910F9102
:1004B00008950E94C10260933001709331018093CE
:1004C000320190933301A2CF10922B01C4CF0E942E
:1004D000CD0181E080932B010E94C1026093300125
:1004E000709331018093320190933301D7CF1F92E3
:1004F0000F920FB60F9211242F933F938F939F93D8
:10050000AF93BF938091390190913A01A0913B0143
:10051000B0913C013091380123E0230F2D3720F4B6
:100520000196A11DB11D05C026E8230F0296A11D4D
:10053000B11D209338018093390190933A01A09323
:100540003B01B0933C0180913D0190913E01A0910F
:100550003F01B09140010196A11DB11D80933D0165
:1005600090933E01A0933F01B0934001BF91AF91A2
:100570009F918F913F912F910F900FBE0F901F90E1
:1005800018952FB7F8946091390170913A018091D4
:100590003B0190913C012FBF08953FB7F8948091A3
:1005A0003D0190913E01A0913F01B091400126B5DF
:1005B000A89B05C02F3F19F00196A11DB11D3FBF9B
:1005C0006627782F892F9A2F620F711D811D911D2B
:1005D00042E0660F771F881F991F4A95D1F708954B
:1005E000CF92DF92EF92FF92CF93DF936B017C016A
:1005F0000E94CD02EB01C114D104E104F10479F0B1
:100600000E94CD026C1B7D0B683E7340A0F381E01D
:10061000C81AD108E108F108C851DC4FECCFDF91CE
:10062000CF91FF90EF90DF90CF900895789484B5AC
:10063000826084BD84B5816084BD85B5826085BDDE
:1006400085B5816085BDEEE6F0E0808181608083C4
:10065000E1E8F0E0108280818260808380818160A7
:100660008083E0E8F0E0808181608083E1E9F0E070
:10067000808182608083808181608083E0E9F0E016
:10068000808181608083E1ECF0E080818460808300
:10069000808182608083808181608083E3ECF0E0F0
:1006A000808181608083E0ECF0E0808182608083E3
:1006B000E2ECF0E0808181608083EAE7F0E0808115
:1006C0008460808380818260808380818160808378
:1006D000808180688083089590E0FC013197EE303E
:1006E000F10590F5EA5AFF4F0C94220A80918000A0
:1006F0008F7703C0809180008F7D80938000089564
:1007000084B58F7702C084B58F7D84BD08958091B4
:1007100090008F7707C0809190008F7D03C08091FB
:100720009000877F8093900008958091C0008F771C
:1007300003C08091C0008F7D8093C0000895809198
:10074000C200877F8093C2000895CF93DF9390E02B
:10075000FC01EA51FF4F2491FC01EC5FFE4F8491B4
:10076000882349F190E0880F991FFC01E25CFE4F5D
:10077000A591B491805D9E4FFC01C591D4919FB726
:10078000611108C0F8948C91209582238C93888104
:1007900082230AC0623051F4F8948C91322F309544
:1007A00083238C938881822B888304C0F8948C9156
:1007B000822B8C939FBFDF91CF9108950F931F934E
:1007C000CF93DF931F92CDB7DEB7282F30E0F9012A
:1007D000E853FF4F8491F901EA51FF4F1491F90159
:1007E000EC5FFE4F04910023C9F0882321F0698358
:1007F0000E946C036981E02FF0E0EE0FFF1FE05DC7
:10080000FE4FA591B4919FB7F8948C91611103C0EC
:100810001095812301C0812B8C939FBF0F90DF9196
:10082000CF911F910F910895CF93DF93282F30E040
:10083000F901E853FF4F8491F901EA51FF4FD49138
:10084000F901EC5FFE4FC491CC2391F081110E941D
:100850006C03EC2FF0E0EE0FFF1FEE5DFE4FA59155
:10086000B4912C912D2381E090E021F480E002C02E
:1008700080E090E0DF91CF9108950E94160381E41B
:1008800091E00E9429070E94A601C0E0D0E00E94EA
:10089000D7012097E1F30E940000F9CF615030F0BA
:1008A0002091F100FC0120830196F8CF289884E67E
:1008B0008093480108952FB7FC012083F894677056
:1008C0006093E9000895CF93DF931F92CDB7DEB711
:1008D000682FCE0101960E945B048091F2009981FD
:1008E0009FBF0F90DF91CF910895FF920F931F93B9
:1008F000CF93DF9300D0CDB7DEB7F62E8A0190916B
:100900004701992311F057FF03C08FEF9FEF2BC0D2
:10091000682FCE0101967A830E945B048091F200D9
:1009200090E0A8017A81801791070CF4AC01EF2DBB
:10093000F72FF40E84E6FE1639F0289880934801CC
:100940009091F1009193F7CF4115510521F08091DD
:10095000F200882321F089818FBFCA0104C08BE691
:100960008093E800F8CF0F900F90DF91CF911F9107
:100970000F91FF900895CF93DF931F92CDB7DEB70D
:1009800041E050E0BE016F5F7F4F0E947504019708
:1009900019F4898190E002C08FEF9FEF0F90DF91F3
:1009A000CF910895CF93DF931F92CDB7DEB7682F15
:1009B000CE0101960E945B049091E800892F80721D
:1009C00095FF04C09091F20080E4891B99819FBF3C
:1009D0000F90DF91CF9108954F925F926F927F9227
:1009E0008F929F92AF92BF92CF92DF92EF92FF923F
:1009F0000F931F93CF93DF931F92CDB7DEB7582E7F
:100A00007B01A42E952E80914701882369F0042F45
:100A1000152F8AEFB82E852D8072782E9AE3892EB5
:100A2000852D8074682E11C08FEF9FEF53C0852DE8
:100A30000E94D204482E81110CC0BA94A9F361E03F
:100A400070E080E090E00E94F0020115110579F756
:100A500037C0282F30E0021713070CF4402EC42CA7
:100A6000D12C0C191D09652DCE0101960E945B0445
:100A7000772039F04A948FEF4816B1F01092F100C8
:100A8000F9CFF701842D57FE07C0815058F094919B
:100A90009093F1003196F9CF815020F0919190938D
:100AA000F100FACFEC0CFD1C8091E80085FF0FC02F
:100AB0000115110511F461100AC089818FBFC5CFDE
:100AC0005D9884E6809349018A2D992D03C0809218
:100AD000E800F3CF0F90DF91CF911F910F91FF901E
:100AE000EF90DF90CF90BF90AF909F908F907F90CE
:100AF0006F905F904F9008951092E9001092460118
:100B00001092450190934401809343010895CF933F
:100B1000DF93FB0120E030E0DEEF24173507A1F181
:100B200087FF02C0C49101C0C081A0914501B0916E
:100B300046016091430170914401A617B707B4F4D0
:100B40009091E8009570E1F39091E80092FD1EC04D
:100B5000C093F10060914501709146016F5F7F4F36
:100B60006F737727672B11F4D093E80060914501EC
:100B7000709146016F5F7F4F70934601609345010E
:100B80002F5F3F4F3196C9CFC90102C08FEF9FEF52
:100B9000DF91CF9108951F93CF93DF931F92CDB72D
:100BA000DEB7162F2091E80022FFFCCF612F79835A
:100BB0000E944E048BEF8093E800812F7981972F5C
:100BC0000F90DF91CF911F910895CF93DF931F92E4
:100BD000CDB7DEB71982CE0101960E947E09CE0103
:100BE00001960E94C407898190E00F90DF91CF9118
:100BF00008951F920F920FB60F921124EF92FF9259
:100C00000F931F932F933F934F935F936F937F9314
:100C10008F939F93AF93BF93EF93FF93CF93DF9304
:100C2000CDB7DEB76297DEBFCDBF1092E9008091ED
:100C3000E80083FFE7C068E0CE010A960E944E04F8
:100C400082EF8093E8009A8597FF05C08091E800C5
:100C500080FFFCCF03C08EEF8093E800892F807661
:100C600009F0B5C08B85811105C01092F10010927A
:100C7000F100C1C0282F2D7F213009F4BCC0853080
:100C800049F48091E80080FFFCCF8C8580688093D8
:100C9000E300B1C0863009F072C02D85E888F9887C
:100CA000223071F580E090E02A8B0E947C050E9442
:100CB000E50599E08E010F5F1F4FF801392F119262
:100CC0003A95E9F799832A892A8391E09E8390E8EF
:100CD00098879AEF99872091450130914601275FC7
:100CE0003F4F3C832B838D83C7010E947C0549E0E5
:100CF00050E0B80180E00E9487050E94E5057BC0B6
:100D0000C7012A8B0E947C052A89223241F482E2A3
:100D100090E00E94CF07892B09F06DC070C0213090
:100D200069F488899989089711F420934201809188
:100D30004201882389F061E571E016C0233009F093
:100D40005EC08C85882359F0823061F0813009F0D3
:100D500056C065E771E008C063E671E005C06FEA60
:100D600071E002C06DE871E06115710509F447C0DA
:100D7000FB01449150E080E80E9487053CC0873029
:100D800009F43DC0883021F481E08093F10033C044
:100D9000893089F5937099F5EDE4F1E081E021E087
:100DA00096E38093E9002093EB0034913093EC00BC
:100DB0009093ED008F5F3196853099F78EE78093A1
:100DC000EA001092EA008C858093470114C088895C
:100DD00099890E947C058E85811105C0CE010A96F5
:100DE0000E94890906C0823051F4CE010A960E9401
:100DF000F707882321F08EEF8093E80003C081E29B
:100E00008093EB0062960FB6F894DEBF0FBECDBFA5
:100E1000DF91CF91FF91EF91BF91AF919F918F9112
:100E20007F916F915F914F913F912F911F910F9102
:100E3000FF90EF900F900FBE0F901F90189580932A
:100E4000E9008091F200882319F08AE38093E8009A
:100E500008951092470181E08093D70080EA809343
:100E6000D80082E189BD09B400FEFDCF61E070E0E9
:100E700080E090E00E94F00280E98093D8008CE04E
:100E80008093E2001092E000559A209A08951F92F4
:100E90000F920FB60F9211242F933F934F935F93AE
:100EA0006F937F938F939F93AF93BF93EF93FF9332
:100EB0008091E1001092E10083FF0FC01092E900E1
:100EC00091E09093EB001092EC0092E39093ED0090
:100ED0001092470198E09093F00082FF26C083E0D3
:100EE0000E941F0782E00E946304882321F087E5A7
:100EF00091E00E94300980914901882339F0809166
:100F00004901815080934901882369F0809148010B
:100F1000882359F0809148018150809348018111C4
:100F200004C0289A02C05D9AF1CFFF91EF91BF9162
:100F3000AF919F918F917F916F915F914F913F9171
:100F40002F910F900FBE0F901F901895FF920F9347
:100F50001F93CF93DF93EC01F62EE881F981048093
:100F6000F581E02D09958C01E881F9810680F781F2
:100F7000E02D6F2DCE010995C8019927DF91CF9102
:100F80001F910F91FF900895FC0120812F5F208316
:100F900049E150E063E372E080E80C94870545E6A0
:100FA00050E06CE472E080E80C948705EF92FF92C9
:100FB0000F931F93CF93DF931F92CDB7DEB7898333
:100FC0008B017A0141E050E0BE016F5F7F4F84E00A
:100FD0000E94EC04A701B80184E40E94EC040F9085
:100FE000DF91CF911F910F91FF90EF900895FC0139
:100FF00091818081813A31F481E0913091F0933098
:1010000089F411C0813271F49B3021F48281809384
:10101000010105C09A3031F482818093000181E0A2
:101020000895089580E0089548E050E082E00C942F
:10103000D607CF93DF93DC01683818F0E8E7E60FB6
:1010400025C0E62FF0E067FF11C0E058F10981E00C
:1010500090E001C0880FEA95EAF714969C911497E6
:10106000982B14969C931497E0E010C0ED54FE4F1B
:10107000E491EE2309F440C0E7FF08C014968C9178
:101080001497826014968C931497EF7716968C9130
:1010900016978E1741F117968C9117978E1719F1A5
:1010A00018968C9118978E17F1F019968C911997C4
:1010B0008E17C9F01A968C911A978E17A1F01B966D
:1010C0008C911B978E1779F080E090E0ED01C80FAE
:1010D000D91F2E81211102C0EE8305C001968630F2
:1010E0009105A1F709C0BD016C5F7F4FCD010E9442
:1010F000140881E090E008C081E090E013969C9392
:101100008E93129780E090E0DF91CF910895683838
:1011100018F0E8E7E60F25C0E62FF0E067FF12C001
:10112000E058F10921E030E001C0220FEA95EAF72A
:101130002095DC0114963C911497322314963C932D
:10114000E0E00FC0ED54FE4FE491EE2329F1E7FFFC
:1011500008C0DC0114962C9114972D7F14962C93C3
:10116000EF7720E030E0EE2351F0DC01A20FB31F57
:1011700016964C9116974E1302C016961C922F5F2E
:101180003F4F2630310579F7BC016C5F7F4F0E94DD
:10119000140881E090E0089580E090E00895FC015B
:1011A0001682178210861186128613861482BC015D
:1011B0006C5F7F4F0C9414081092560110924D01F1
:1011C00010924C018EE091E090934B0180934A0184
:1011D00008958091A5019091A6012091A7013091D9
:1011E000A801821B930B8F73992708952091A50165
:1011F0003091A6018091A7019091A8012817390785
:1012000049F0E091A701F091A801EB59FE4F8081D0
:1012100090E008958FEF9FEF08952091A501309100
:10122000A6018091A7019091A80128173907A9F07C
:10123000E091A701F091A801EB59FE4F8081209128
:10124000A7013091A8012F5F3F4F2F7333273093B1
:10125000A8012093A70190E008958FEF9FEF0895D4
:10126000CF93DF93C091A501D091A6012196CF73B2
:10127000DD278091A7019091A801C817D90799F09F
:1012800082E00E94BB048F3F2FEF920761F0E09154
:10129000A501F091A601EB59FE4F8083D093A601E2
:1012A000C093A501DFCFDF91CF91089583E00C9427
:1012B0001F070F931F93CF93DF931F92CDB7DEB716
:1012C0008C01698380910901882359F041E050E045
:1012D000BE016F5F7F4F83E00E94EC041816190671
:1012E0003CF081E090E0F8019383828380E090E01D
:1012F0000F90DF91CF911F910F910895FC012081F4
:101300002E5F208342E450E061EB72E080E80C94B1
:101310008705FC0181819081913A59F4813209F06D
:101320004BC047E050E062E071E080E00E9487053A
:1013300045C0913209F040C0803239F467E070E076
:1013400082E091E00E94CB0539C0823209F034C0BE
:101350008281809309018091020190910301A09103
:101360000401B0910501803B9440A105B10531F520
:101370008091090180FD12C087E797E790930108EB
:10138000809300082BE088E190E00FB6F894A895D0
:10139000809360000FBE2093600010C088E10FB6FC
:1013A000F89480936000109260000FBEA895109290
:1013B00001081092000802C080E0089581E00895BD
:1013C00010925A011092590188EE93E0A0E0B0E02B
:1013D00080935B0190935C01A0935D01B0935E01EB
:1013E0008CE191E090935801809357010895CF923A
:1013F000DF92EF92FF920F931F93CF93DF936C01D5
:101400007A01EB01E60EF71E00E010E0CE15DF05D5
:1014100061F06991D601ED91FC910190F081E02D90
:10142000C6010995080F191FF1CFC801DF91CF91AF
:101430001F910F91FF90EF90DF90CF900895F89457
:101440000C94280AEE0FFF1F0590F491E02D0994EB
:04145000F894FFCF3E
:10145400010100E100000000000000000000A607F8
:10146400F70919088708CF08000000005909F7098F
:0A147400E9080D09F60856093009D1
:00000001FF
